:100000000C947B030C940E090C94A3030C94A3038F
:100010000C9475080C94A3030C94A3030C94A303F1
:100020000C94A3030C94A3030C94A3030C94A303B8
:100030000C94A3030C94A3030C94A3030C94A303A8
:100040000C94DF2A0C94A3030C94B82D0C94EA2D85
:100050000C94A3030C94A3030C94A3030C94A30388
:100060000C94A3030C94A303EA1FF01FF61FFC1FBC
:10007000022008200E2014201A203B2043204B2071
:1000800053205B2063206B2021212921312139213C
:100090004121492151215921AC21B421BC21C42144
:1000A000CC21D421DC2109260F2615261B26BB26B0
:1000B0002126BB26BB262726BB2632263D264826E0
:1000C000BB26BB26BB265326BB26BB2668267D2621
:1000D0009226BB26BB26BB26BB26BB26BB26A72655
:1000E00005A84CCDB2D44EB93836A9020C50B991FE
:1000F0008688083CA6AAAA2ABE000000803F870482
:100100008B045F040804D70373032503E5029902F7
:1001100043020802B801B001A1019801FA01ED0102
:10012000E701E101D801D301C7013D022F022102FD
:1001300019020F029102870278026F0264025C02C8
:1001400055024C02D802CC02B902AD02A10218033A
:100150000F036A04ED020203F50260035303420336
:10016000300353032A036A04CF03C70395038A03AA
:10017000BE03BA03AD039F037B030304FD03F9032E
:10018000F503F103EB03E703E103560449043C04E0
:100190002F0425041C0413044C4F4F5054494D4563
:1001A0000050494420434F4E54524F4C4C4552004E
:1001B00050524F46494C4500414456414E4345201C
:1001C00054554E494E47005445585420414C4152D5
:1001D0004D5300414D5053004D414820583130306F
:1001E0000054494D455200535045454400414C543C
:1001F0004954554445205831300044495354414EE8
:100200004345205831303000414C41524D53004F4E
:100210005344205458204348004D41472043414C0B
:1002200000444542554700312E31560035560056A0
:100230002052454600494D50004D455400554E4909
:10024000545300414456414E434544004D415020D3
:100250004D4F44450047494D42414C0053454E5394
:100260004F52530047505320434F4F524453005472
:1002700048524F54544C45005343524F4C4C494EF6
:100280004720424152530053494445204241525372
:1002900000484F52495A4F4E00444953504C41591F
:1002A0000041444A555354205A45524F0041444A54
:1002B00055535420414D50530055534520564952F3
:1002C0005455414C2053454E534F520044495350CE
:1002D0004C4159204D414800444953504C4159200C
:1002E000414D50530043555252454E5400555345CD
:1002F0002050574D005345542052535349204D49E7
:100300004E005345542052535349204D41580053F9
:100310004554205253534900444953504C415920AD
:100320005253534900525353490043454C4C5300D8
:10033000444953504C41592056494420564F4C543F
:1003400053004D41494E20564F4C545320414C418F
:10035000524D0041444A55535420564F4C5453007B
:10036000444953504C4159204D41494E20564F4C21
:10037000545300564F4C544147450054504120427D
:100380005245414B504F494E540050495443482028
:100390005241544500524F4C4C2052415445005458
:1003A00048524F54544C45204558504F00544852E1
:1003B0004F54544C45204D4944005450410059413C
:1003C000572052415445005243204558504F005247
:1003D0004320524154450052432054554E494E4704
:1003E000005A5F56454C004D4147004C4556454C20
:1003F0000047505300414C54005941570050495454
:10040000434800524F4C4C0050494420434F4E4605
:100410004947004D415820414D5053004D4148201F
:1004200055534544004D4158205350454544004DD7
:10043000415820414C544954554445004D415820A1
:1004400044495354414E434500544F54204449536A
:1004500054414E434500464C592054494D450053A4
:10046000544154495354494353005553452046433E
:10047000003C504147453E00534156452B455849A5
:10048000540045584954004F4646004F4E00C204A0
:10049000B904A70496044E4F542044455445435490
:1004A00045442D50414C004E4F5420444554454343
:1004B0005445442D4E545343004155544F2D504103
:1004C0004C004155544F2D4E545343001505DC0448
:1004D0000405F504E504DC04E104DD040053493AB5
:1004E0000049443A00202020202B50495443482002
:1004F00046554C4C00202020202B59415720524972
:10050000474854004D454E553A54485254204D49A1
:1005100044444C45004D574F5344202D20312E3636
:100520002E352E58008A056805610582057A057109
:10053000053B058A0558054E0545054C4F57205685
:100540004F4C545300204D495353494F4E00415591
:10055000544F20484F4C44004155544F205254486A
:10056000002041524D45440044495341524D4544B9
:10057000004C4F57205341545300204E4F204750BA
:1005800053004E4F204441544100001D1A1D1C1DB4
:10059000191D1C1D1B1D1C1D181D1C1D1A1D1C1D9D
:1005A000191D1C1D1B1D20007BC12A00210090006D
:1005B00054002400720027003500CB0060017EC18A
:1005C0007EC137C110011D0102000F004C01F20075
:1005D0006BC12FC175017F01C200BB00BB000300CE
:1005E00007007A00550106015C003400C500640074
:1005F0005701BA001801DCC020C034C036C0B7C0F3
:1006000090C054C024C072C028C0CBC0CAC060C152
:100610007EC17EC137C110011D0102C00FC04DC196
:10062000F3C06BC12FC171C178C1C2C0BBC0BBC018
:10063000030007007AC055C106C15CC03400C30086
:1006400064C05301BA0018C1DCC00000000096006D
:1006500000000004F40158020C00003C00000001FE
:100660008A04C800000000000100C80032640101D3
:100670000100000001000000010100000100000174
:10068000000000000001010101010001010004005F
:100690000000050001006464641E4D574F53440080
:1006A00020202020000000080002010000030407B1
:1006B000000000000000000001020408102040803B
:1006C000010204081020010204081020040404049C
:1006D00004040404020202020202030303030303EC
:1006E00000000000250028002B000000000024006E
:1006F00027002A001A2E11241FBECFEFD8E0DEBF3C
:10070000CDBF11E0A0E0B1E0E4E2F5E602C0059063
:100710000D92AE35B107D9F727E0AEE5B1E001C0E3
:100720001D92A030B207E1F716E0C6EFD6E004C094
:100730002297FE010E940732C43FD107C9F70E94E9
:100740005E2E0C9490320C940000DC01ED91FC9133
:100750000190F081E02D0994609150047091510452
:100760006115710581F420E030E044EB53E46091C1
:1007700036047091370480913804909139040E94B6
:10078000492F0E94B12F2091910584E6289F900166
:10079000112481E0261737070CF080E0089580913E
:1007A000730481110EC08091300681110AC08091BE
:1007B0002F06811106C080E88093F60581E08093C2
:1007C0002F06089580912F06882329F080E090E17C
:1007D000A0E0B0E05AC080913006882329F08FE96C
:1007E00096E0ACE0B0E051C08AE090E0A0E0B0E07C
:1007F00080931E0290931F02A0932002B0932102C7
:1008000020917C0421FF0CC08AE190E0A0E0B0E0E0
:1008100080931E0290931F02A0932002B0932102A6
:1008200080913F06813089F080911E0290911F02D5
:10083000A0912002B0912102816080931E029093CA
:100840001F02A0932002B093210223FF11C08091C8
:100850001E0290911F02A0912002B0912102806A95
:1008600080931E0290931F02A0932002B093210256
:100870008091C905811111C080911E0290911F02C3
:10088000A0912002B0912102986080931E02909363
:100890001F02A0932002B09321028091880581114C
:1008A00004C080918205882389F080911E02909176
:1008B0001F02A0912002B0912102916080931E023C
:1008C00090931F02A0932002B093210280911A02FC
:1008D00090911B02A0911C02B0911D0240911E023A
:1008E00050911F0260912002709121028423952370
:1008F000A623B72380931A0290931B02A0931C0295
:10090000B0931D02089580916B048823A1F180911A
:100910007304882381F16091590470915A04611520
:10092000710549F120919A0580E090E0222339F089
:100930000E94E22F21EB32E047E55BE306C00E9414
:10094000E22F2FE632E143E85AE30E94D1309B01C7
:10095000AC0160916E0170916F0180917001909176
:1009600071010E94DE2E60936E0170936F0180937F
:1009700070019093710160916E0170916F0180918F
:100980007001909171010E94B62F60931C047093C6
:100990001D0480931E0490931F040895EF92FF920C
:1009A0000F931F93CF93DF930DE715E0C0E0D0E0E6
:1009B000F80141918F01BE0189E596E00E94DB2A92
:1009C0002196CC34D105A1F70FE615E0CCE4D0E0B8
:1009D000F8014081BE0189E596E00E94DB2AF8011A
:1009E00041810E5F1F4FBE016F5F7F4F89E596E02B
:1009F0000E94DB2A2296CA35D10551F74CE060E00F
:100A000070E089E596E0DF91CF911F910F91FF9003
:100A1000EF900C94DB2A0F931F93CF93DF930091F9
:100A2000320682E5089F80011124CDE1D5E0065A07
:100A30001F4FB80189E596E00E94D82A90E099837B
:100A40008883B8016F5F7F4F89E596E00E94D82ABE
:100A500090E0982F882728813981820F931F9983EE
:100A6000888320919B05222381F09C0131702739D6
:100A7000310558F0AC01425E5F4F59834883213FF6
:100A8000310518F0CC96998388830E5F1F4F22960C
:100A900085E0CF36D80769F6DF91CF911F910F918E
:100AA00008950F931F93CF93DF930DE715E0C0E0F8
:100AB000D0E0BE0189E596E00E94D82AF801819332
:100AC0008F012196CC34D105A1F70FE615E0CCE4D7
:100AD000D0E0BE0189E596E00E94D82A90E0F801B6
:100AE00091838083BE016F5F7F4F89E596E00E940E
:100AF000D82A90E0982F8827F80120813181280F8B
:100B0000391F219331938F012296CA35D10509F7F8
:100B1000DF91CF911F910F910C940B05EF92FF92F3
:100B20000F931F93CF93DF9360E070E089E596E029
:100B30000E94D82A8C3009F46CC0C0E0D0E0FE01DD
:100B4000E85AF94F4491BE0189E596E00E94DB2AFC
:100B50002196CC34D10599F7CCE4D0E0FE01E250E7
:100B6000FA4F05911491402FBE0189E596E00E944D
:100B7000DB2ABE016F5F7F4F412F89E596E00E941F
:100B8000DB2A2296CA35D10549F7CAE5D0E0CE0165
:100B900082569A4F7C01FC0105911491402FBE01B1
:100BA00089E596E00E94DB2ABE016F5F7F4F412FEF
:100BB00089E596E00E94DB2AFE01E45BFA4F05918D
:100BC0001491BE016E5A7F4F402F89E596E00E9436
:100BD000DB2ABE016D5A7F4F412F89E596E00E94C6
:100BE000DB2AF70105911491BE016C557F4F402F10
:100BF00089E596E00E94DB2ABE016B557F4F412FAD
:100C000089E596E00E94DB2A2296CE3FD10509F0C5
:100C1000BECFDF91CF911F910F91FF90EF9008957C
:100C20004F925F926F927F92AF92BF92CF92DF927C
:100C3000EF92FF920F931F93CF93DF9345E0E42E43
:100C400041E0F42E0EE814E0C0E0D0E05AE0D52EEA
:100C5000D7018D917D010E94BE2B20916D01C111A4
:100C600008C030918805332339F18091760490E0F3
:100C700023C0C43009F5309183053323A9F0809156
:100C800030049091310495958795009769F4DC9E26
:100C9000F001DD9EF00D1124E20FF11DEE0FFF1F9C
:100CA000E258FB4F8081918130918205332321F0FE
:100CB00080914E0490914F04DC9EF001DD9EF00D7A
:100CC0001124E20FF11DEE0FFF1FE258FB4FD80178
:100CD0002D913C91119740815181241B350B119628
:100CE0003C932E9320813181280F391F369527950B
:100CF000318320838D919C911197820F931F8D9347
:100D00009C9321960C5E1F4FC530D10509F0A0CFF2
:100D10008091880560918E0470918F04C091A20526
:100D2000811134C080E090E0D0918705C11115C0D9
:100D30000E94E22F6B017C016D2F70E080E090E05B
:100D40000E94E42F9B01AC01C701B6010E94D13083
:100D500027E137EB41ED58E314C00E94E22F6B010D
:100D60007C016D2F70E080E090E00E94E42F9B01F9
:100D7000AC01C701B6010E94D1302FE632E143E059
:100D80005AE30E94D1300E94B62F05C0E3E075956A
:100D90006795EA95E1F770932F0460932E04809194
:100DA0007F0580932A046091A2047091A30480E0DF
:100DB00090E0D0918F05C11115C00E94E22F6B0108
:100DC0007C016D2F70E080E090E00E94E42F9B0199
:100DD000AC01C701B6010E94D13027E137EB41EDEC
:100DE00058E314C00E94E22F6B017C016D2F70E06C
:100DF00080E090E00E94E42F9B01AC01C701B601A6
:100E00000E94D1302FE632E143E05AE30E94D13014
:100E10000E94B62F70932D0460932C0480918A0554
:100E20008111CBC080918C05C0917105D091720564
:100E3000009173051091740581114EC04090B60465
:100E40005090B70463E0559447946A95E1F766249F
:100E500057FC6094762CC301B2010E94E42F60938A
:100E60003A0470933B0480933C0490933D049E01AC
:100E700040E050E0C8011F921F929F930F93A12C56
:100E8000B12C6501E12C14E0F12E00E010E0C3016B
:100E9000B2010E94952E0E94E42F6B017C010F90FD
:100EA0000F900F900F9020E030E0A9010E94422F98
:100EB00087FD09C0C0923A04D0923B04E0923C0402
:100EC000F0923D0495C010923A0410923B041092A7
:100ED0003C0410923D048CC080911A0190911B013A
:100EE00060910C0170910D018617970740F0609199
:100EF0000A0170910B018617970708F4BC0180E086
:100F000090E0685E734081099109623FB3E07B071E
:100F10008105910548F42AE030E040E050E00E946D
:100F2000C43169017A0105C054E6C52ED12CE12CEB
:100F3000F12CC701B6010E94E22F2B013C01A70151
:100F40009601C701B6010E947E310E94E22F2AE07D
:100F500037ED43EA5CE30E94D1309B01AC01C30151
:100F6000B2010E94DE2E6B017C01B80180E090E0AE
:100F70000E94E22F9B01AC01C701B6010E94D13053
:100F80002AE037ED43E25CE30E94D1306B017C0143
:100F900080917304BE01882359F080E090E00E94A4
:100FA000E22F9B01AC01C701B6010E94DE2E18C0E2
:100FB00080E090E00E94E22F13C080913404909171
:100FC000350497FF02C0059701C005966AE070E0FE
:100FD0000E94B031882777FD8095982F0E94E42FDA
:100FE00060933A0470933B0480933C0490933D04D7
:100FF00080918105882309F44DC06091DE047091D1
:10100000DF0443E0759567954A95E1F770933304E3
:101010006093320480913006882389F080914906DC
:101020008F3029F4709378056093770508C081307C
:1010300031F4709376056093750510924906E0903F
:101040007705F090780500E010E02091750530916B
:10105000760540E050E0882777FD8095982F1F9215
:101060001F921F92E4E6EF93A12CB12C65010E9420
:10107000952E0F900F900F900F906536710514F01C
:1010800064E670E077FF02C060E070E070933304C4
:101090006093320480916D018F5F883018F48093E3
:1010A0006D0102C010926D01DF91CF911F910F91E0
:1010B000FF90EF90DF90CF90BF90AF907F906F90B8
:1010C0005F904F9008953B98F89480916C0083FD59
:1010D0000AC08091680082608093680080916C00F3
:1010E000886080936C00789408951F920F920FB6D9
:1010F0000F9211242F933F934F935F936F937F939E
:101100008F939F93AF93BF93CF93EF93FF93C6B10A
:1011100078940E94352B20916B0130916C01AB01CA
:10112000421B530B9A01293B3B4018F021E02093CE
:10113000040170936C0160936B01C3FD29C0209181
:10114000690130916A01621B730BCB018F5E924083
:10115000209104018B3D954098F4809135068823B9
:1011600059F0293068F4E22FF0E0EE0FFF1FEE5E39
:10117000FE4F7183608304C0709331046093300428
:101180002F5F20930401709334066093330604C0EC
:1011900070936A0160936901FF91EF91CF91BF91C4
:1011A000AF919F918F917F916F915F914F913F91FF
:1011B0002F910F900FBE0F901F901895CF93DF9334
:1011C000C0E0D0E040E0BE0189E596E00E94DB2A65
:1011D0002196C11582E0D807A9F7DF91CF91089534
:1011E0008EBD0DB407FEFDCF8EB508956A5C7D4FB0
:1011F000FC012191CF01222321F0FB012193BF01AA
:10120000F7CF08956A5C7D4FFC012491019622235B
:1012100021F0FB012193BF01F7CF08951F920F9298
:101220000FB60F92112410920E020F900FBE0F9066
:101230001F901895CF93DF931F92CDB7DEB76983C8
:101240000E94F0086981862F0F90DF91CF910C9456
:10125000F0085E9A2A9864E670E080E090E00E94D0
:10126000582B2A9A80E58CBD81E08DBD8DB58EB559
:101270006AE070E080E090E00E94582B5E9864E69F
:1012800070E080E090E00E94582B80EA0E94F00815
:101290008FEF0E94F0088370813029F480939B05C2
:1012A000809342060CC0823029F410929B05109264
:1012B000420605C090919B059E5F909342068093E5
:1012C0000F0280919B05882341F080EE91E090937E
:1012D0001102809310026CE407C086E891E09093BD
:1012E0001102809310026CE080E00E941A095E9A5D
:1012F0009FB7F894E89A80916900826080936900B2
:101300009FBF0C940B051F93CF93DF93C82F5E985C
:1013100080919B05882311F060E401C060E080E0CB
:101320000E941A096C2F89E00E941A09C9EFD5E0C2
:1013300010E0612F8AE00E941A0969918BE00E94F7
:101340001A091F5F1633A9F760EA88E00E941A099C
:1013500080EA0E94F00885FDFBCF80919B058823E1
:1013600011F06CE401C06CE080E00E941A095E9A02
:10137000DF91CF911F9108955E9880EA0E94F00856
:101380008FEF0E94F008837090910F0298130C94D5
:10139000290980E80E94F0088FEF0E94F00883FF7F
:1013A000F6CF0895EF92FF920F931F93CF93DF93A1
:1013B000FB0197FF06C0919581959109FF24F39455
:1013C00001C0F12CDF01A40FB11D1C92BEE2EB2E77
:1013D000CAE0D0E0421306C04150DF01A40FB11DA6
:1013E000EC9220E03FEF340F8F01030F111DBE017F
:1013F0000E94B031805DD8018C93CB01332379F00A
:10140000222311F0432FE6CF0097E1F7FF2039F0B8
:101410003EEF340FDF01A30FB11D8DE28C9380E20C
:10142000332331F03150DF01A30FB11D8C93F8CF7E
:10143000CF01DF91CF911F910F91FF90EF90089511
:101440008F929F92AF92BF92DF92EF92FF920F9393
:101450001F93CF93DF93EA01F22E97FF08C0909578
:101460008095709561957F4F8F4F9F4F0E2D24E68D
:1014700030E040E050E00E94E631CA01B90126E0C8
:101480002F0DFE01E20FF11D108215E0E12EEF0C91
:10149000FE01EE0DF11D00830AE0802E912CA12C9F
:1014A000B12C2EE2D22E2FEF2E0DEF1006C0E22E21
:1014B000FE01E20FF11DD082F6CFE22E8E01020F67
:1014C000111DA50194010E94E631605DF801608361
:1014D000B901CA01E11002C080E209C0F2E0FE15C4
:1014E00010F36115710581059105E9F6F5CFEE2040
:1014F00031F0EA94FE01EE0DF11D8083F8CFCE01AC
:10150000DF91CF911F910F91FF90EF90DF90BF90EF
:10151000AF909F908F9008953F924F925F926F92FD
:101520007F928F929F92AF92BF92CF92DF92EF9273
:10153000FF920F931F93CF93DF93EA01522E211155
:1015400003C0A5E06A2E02C0F8E06F2EFE01E60D92
:10155000F11D1082762C452C4AE0842E912CA12C72
:10156000B12C56E0C52ED12CE12CF12CEAE33E2E15
:101570002FEF270D8E01020F111D27FD1A95A501D2
:1015800094010E94C431605DF80160838EEF870D85
:101590008E01080F111D87FD1A95CA01B901A70117
:1015A00096010E94C431605DF8016083B901CA01EF
:1015B000FDEF7F0EFE01E70DF11D77FCFA953082FD
:1015C0004A942FEF4212D4CF252D220F250D621AF7
:1015D000EDEF6E0E3AE0C32ED12CE12CF12C6A9483
:1015E0008E01060D111D67FC1A95A70196010E9438
:1015F000C431605DF8016083B901CA0161157105EC
:101600008105910511F480E203C06110E8CFFBCFA2
:10161000662041F06A94FE01E60DF11D67FCFA9523
:101620008083F6CFCE01DF91CF911F910F91FF9074
:10163000EF90DF90CF90BF90AF909F908F907F9072
:101640006F905F904F903F90089580E0E82FF0E01A
:10165000EE5DFD4F9081992311F08F5FF7CF0895D4
:10166000E82FF0E0EE0FFF1FE35EFA4F208131819B
:101670002227307C81E02115304C09F080E008956C
:10168000CF93DF9380915306882309F49EC1809104
:10169000CE059091CF05A0E0B0E040917804509144
:1016A000790460917A0470917B0484239523A623A6
:1016B000B723892B8A2B8B2BD1F08091AB05882304
:1016C000B1F01092240286E18093220287E1809398
:1016D00023028EE10E94300B882349F06091590566
:1016E00070915A05717082E292E00E94F608809132
:1016F000B105882309F462C080917804909179043F
:10170000A0917A04B0917B044091CA0550E060E05A
:1017100070E0482359236A237B23452B462B472B14
:1017200069F44091CB0550E060E070E04823592314
:101730006A237B23452B462B472B29F020EA209355
:101740002202E1E001C0E0E04091CC0550E060E021
:1017500070E0482359236A237B23452B462B472BD4
:1017600039F0CE2FD0E0CE5DDD4F22EA2883EF5F47
:101770004091CD0550E060E070E0482359236A2392
:101780007B23452B462B472B39F0AE2FB0E0AE5DC7
:10179000BD4F81EA8C93EF5FF0E0EE5DFD4F10826C
:1017A00086E00E94300B882349F0609129057091F2
:1017B0002A05717082E292E00E94F6088091780416
:1017C00090917904A0917A04B0917B044091D40562
:1017D0005091D50560E070E0482359236A237B23AC
:1017E000452B462B472B39F0109224028AEA80932E
:1017F00022028BEA58C04091D0055091D10560E09B
:1018000070E0482359236A237B23452B462B472B23
:1018100049F08DE9809322028EE980932302109291
:10182000240243C04091D2055091D30560E070E09E
:10183000482359236A237B23452B462B472B39F01A
:10184000109224028DEC809322028EEC2CC04091E9
:10185000CA0550E060E070E0482359236A237B23E7
:10186000452B462B472B39F0109224028CEA8093AB
:1018700022028DEA18C04091CB0550E060E070E094
:10188000482359236A237B2310922402452B462B9D
:10189000472B29F084EC8093220285EC04C08EEA69
:1018A000809322028FEA809323028091A4058823EB
:1018B000C9F181E20E94300B8823A1F160915F059C
:1018C00070916005717082E292E00E94F60880914A
:1018D000D6059091D705A091D805B091D905409132
:1018E00078045091790460917A0470917B04842388
:1018F0009523A623B723892B8A2B8B2B99F08AEE6D
:10190000809322028BEE8093230210922402609136
:101910005F057091600571706E5F7F4F82E292E0AB
:101920000E94F6088091450681114FC084E20E9412
:10193000300B882309F449C0409178045091790410
:1019400060917A0470917B048091D0059091D105CB
:10195000A0E0B0E084239523A623B723892B8A2B0C
:101960008B2B01F58091D2059091D305A0E0B0E0DA
:1019700084239523A623B723892B8A2B8B2BA1F4B1
:101980008091E6059091E705A091E805B091E90501
:1019900084239523A623B723892B8A2B8B2BA9F08D
:1019A000E3E003C0E1E001C0E2E0F0E0EE0FFF1F82
:1019B000ED5CFA4F85919491609165057091660593
:1019C0007170DF91CF910C940209DF91CF9108954E
:1019D000EFEBF5E0A2E2B2E021912D9325E0E93CA6
:1019E000F207D1F710922C02BC0182E292E00C9433
:1019F000F6088F929F92AF92BF92CF92DF92EF92B2
:101A0000FF920F931F93CF93DF937C01EB018091A3
:101A1000AA05811105C08091B205882309F4C8C0C8
:101A200080917304811104C010925A0410925904D9
:101A30002091590430915A04809155049091560494
:101A4000AC01415F5F4F42175307F0F40E94292B0E
:101A5000609348047093490480934A0490934B0424
:101A600082E080934D048091590490915A049093A0
:101A700056048093550480910F01815080930F018B
:101A8000803130F585E122C0215F3F4F28173907AB
:101A9000F8F40E94292B60934804709349048093C2
:101AA0004A0490934B0481E080934D048091590443
:101AB00090915A04909356048093550480910F019D
:101AC0008F5F80930F01863118F080E180930F01C2
:101AD0008091EA049091EB04A091EC04B091ED04A4
:101AE0004091E6045091E7046091E8047091E904A4
:101AF0008A019B010C5E1F4F2F4F3F4F081719079C
:101B00002A073B0734F50E94292B60934404709305
:101B10004504809346049093470482E080934C04EC
:101B20008091EA049091EB04A091EC04B091ED0453
:101B30008093E6049093E704A093E804B093E9044B
:101B400080910E01815080930E01803188F585E1EE
:101B50002DC04496A11DB11D84179507A607B70790
:101B60003CF50E94292B60934404709345048093B4
:101B700046049093470481E080934C048091EA04EA
:101B80009091EB04A091EC04B091ED048093E604F5
:101B90009093E704A093E804B093E90480910E01C8
:101BA0008F5F80930E01863118F080E180930E01E3
:101BB0008091AA05811105C083E180930F01809374
:101BC0000E0100914F05109150051170C93CD105CF
:101BD0003CF4C8332FEFD2072CF4C8E3DFEF02C088
:101BE000C8ECD0E071E9E71671E0F70654F480E73D
:101BF000E8168EEFF8064CF4B0E7EB2EBEEFFB2EA6
:101C000004C080E9E82EFF24F394D0909D0589E17B
:101C10000E94300B8D2109F465C0CE010A9697FD14
:101C2000079663E0959587956A95E1F7EE27FF277C
:101C3000E81BF90BB090AF0540E0C4E0D0E079E0DC
:101C4000C72ED12CAEE1AA2E443009F445E0242F52
:101C500030E0BE01621B730BE69EC001E79E900D53
:101C6000F69E900D112497FDCF9656E09595879599
:101C70005A95E1F78E0F9F1F899682359105F8F4EA
:101C8000200F311FB6010E94B031A69ED001A79E41
:101C9000B00D11242A0F3B1F80582A5C3D4FD901FB
:101CA000AC57B1098C93BB2051F09EEF940F953047
:101CB00030F4AA55B1098C93AC54BF4F8C934F5F4D
:101CC000493010F282E20E94300B81110BC0F80102
:101CD000EA5CFD4FDF01119786E28C938CEB8183E8
:101CE0008EE7808380919E05882309F49EC08AE157
:101CF0000E94300B882309F498C0809157058F709B
:101D0000909155059F70D92E492F419560910F01F3
:101D100050910E01E82EFF24E7FCF09498012E1953
:101D20003F09E701C00FD11F7EE14702C001112426
:101D30008A5C9D4FFC01E20FF31F6083FC01EC0FF6
:101D4000FD1F50834F5FD4167CF7F801EE19FF0991
:101D5000E95CFD4F83E08083F801EE0DFF1DEB5C35
:101D6000FD4F82E080838091B205882309F45DC035
:101D70008BE10E94300B882309F457C00E94292B65
:101D80008090480490904904A0904A04B0904B047D
:101D900028EE820E23E0921EA11CB11C6815790565
:101DA0008A059B05D8F480914D04F801823059F4DE
:101DB0008EE1D89EE019F1091124EE19FF09EA5CC1
:101DC000FD4F89EC0AC02EE1D29EE00DF11D1124D9
:101DD000EE19FF09EA5CFD4F8FEC80830E94292BEE
:101DE0000091440410914504209146043091470429
:101DF00008511C4F2F4F3F4F601771078207930701
:101E0000A0F480914C04CA5CDD4F823039F47EE14D
:101E1000D79EC019D109112489EC06C08EE1D89E45
:101E2000C00DD11D11248FEC8883DF91CF911F91BC
:101E30000F91FF90EF90DF90CF90BF90AF909F9069
:101E40008F900895AF92BF92CF92DF92EF92FF9260
:101E50000F931F938091850580932B0480918605B5
:101E60008093360690919F059923E1F1209111010D
:101E7000829F9001112440911001849FA0011124A0
:101E800080912E0490912F048217930710F4622FF3
:101E900009C07A0162E0E61AF1088E159F0508F480
:101EA0007C016E2D7A0181E0E81AF10800E010E073
:101EB000442737FD4095542F70E080E090E01F925A
:101EC0001F921F92E7E0EF93A12CB12C65010E94B5
:101ED000952E86E9861B809322020F900F900F901B
:101EE0000F9003C087E98093220200912E04109185
:101EF0002F04E0902B04F12C0E151F0520F4809187
:101F00004506811127C085E10E94300B811103C075
:101F1000E016F106F8F023E044E063E272E0C80165
:101F20000E94D20989EA80932702109228026091C8
:101F300047057091480571706150710982E292E025
:101F40001F910F91FF90EF90DF90CF90BF90AF90D7
:101F50000C94F6081F910F91FF90EF90DF90CF90B7
:101F6000BF90AF900895CF93DF93C0912C04D09190
:101F70002D0480912A0490E0C817D90720F480919D
:101F80004506811121C086E10E94300B8823E1F0D3
:101F90008FEB8093220223E044E063E272E0CE0103
:101FA0000E94D20989EA8093270210922802609148
:101FB000490570914A0571706150710982E292E0A1
:101FC000DF91CF910C94F608DF91CF910895AF92F5
:101FD000BF92CF92DF92EF92FF920F931F938BE00D
:101FE0000E94300B882309F483C080E2809323028F
:101FF00060911A0170911B0180910A0190910B016F
:102000008617970720F470930B0160930A01809163
:102010000C0190910D016817790720F470930D0160
:1020200060930C0180910A0190910B0183309840DC
:1020300030F082E098E090930B0180930A01809148
:102040000C0190910D01863B934030F486EB93E0B8
:1020500090930D0180930C018091730481110BC04A
:1020600080E2809324029DE29093250290932602C1
:102070008093270227C0E0900A01F0900B0100E056
:1020800010E020910C0130910D0140E050E080E023
:1020900090E01F921F921F92E4E6EF93A12CB12CC7
:1020A00065010E94952EDC01CB0120E043E064E253
:1020B00072E00E94D20985E2809327020F900F9070
:1020C0000F900F9088EC809322021092280260916A
:1020D000330570913405717082E292E01F910F9187
:1020E000FF90EF90DF90CF90BF90AF900C94F608E8
:1020F0001F910F91FF90EF90DF90CF90BF90AF9026
:1021000008958091B005882309F44EC08091370569
:10211000909138058115924008F446C0809173046F
:102120008823F1F02091400430914104C9016CE30F
:1021300070E00E949C318091BE0590E0681779079D
:1021400020F08091450681112FC020318EE03807A4
:1021500028F48CE980932202B90116C081E709C0F6
:10216000609142047091430460312EE0720720F4C4
:102170008BE98093220208C080E780932202CB0182
:102180006CE370E00E949C3180E090E020E043E24C
:1021900052E00E948C0A6091370570913805717089
:1021A00082E292E00C94F6080895CF92DF92EF92CB
:1021B000FF92C0903A04D0903B04E0903C04F09031
:1021C0003D04609120047091210480E090E00E9421
:1021D000E22F9B01AC01C701B6010E94CD30181659
:1021E00044F4C701B6010E94B62F70932104609396
:1021F000200487E10E94300B8823F1F0C701B6016B
:102200000E94B12FDC01CB0124E045E062E272E0E4
:102210000E94D2098AE980932702109228026091D5
:102220004B0570914C05717082E292E0FF90EF9047
:10223000DF90CF900C94F608FF90EF90DF90CF9056
:102240000895CF92DF92EF92FF920F931F93CF9357
:10225000DF9385E20E94300B882309F46EC0009161
:1022600067051091680580919A05609159047091F5
:102270005A04811109C080E090E00E94E22F2CEB0B
:1022800034E743E15DE308C080E090E00E94E22F84
:102290002DED3FE347EB5CE30E94D1300E94B62F67
:1022A000EB01209741F160912E0470912F0480E0A2
:1022B00090E00E94E22F20913A0430913B0440913B
:1022C0003C0450913D040E94D1306B017C018AE0B6
:1022D0008C9FB0018D9F700D112480E090E00E94D2
:1022E000E22F9B01AC01C701B6010E94492F0E9459
:1022F000B62FEB0102C0C7EED3E023E044E063E277
:1023000072E0CE010E94D20980E2809322028AE22A
:102310008093270210922802C73ED34070F4B80180
:10232000717082E292E0DF91CF911F910F91FF9047
:10233000EF90DF90CF900C94F608DF91CF911F9132
:102340000F91FF90EF90DF90CF90089588E10E9469
:10235000300B882321F184EA8093220220E030E0D0
:1023600044EB53E460913604709137048091380453
:10237000909139040E94492F0E94B12FDC01CB01BA
:102380004AE050E063E272E00E943A3260914D050B
:1023900070914E05717082E292E00C94F6080895F7
:1023A00083E10E94300B882331F18AEB8093220273
:1023B0004AE050E063E272E080913204909133048D
:1023C0000E943A320E94250BA82FB0E0AE5DBD4FAF
:1023D00095E29C938F5FE82FF0E0EE5DFD4F108259
:1023E000609143057091440571706150710982E2FA
:1023F00092E00C94F608089587E00E94300B882341
:1024000081F180919805882361F180913E0490913B
:102410003F0420919905222381F097FF02C088593B
:102420009E4F20E043E062E272E00E94D2098DEB11
:1024300080932502109226020BC020E044E062E265
:1024400072E00E94D2098DEB80932602109227023F
:1024500060912B0570912C05717082E292E00C94D2
:10246000F608089588E00E94300B8823F9F08091E7
:10247000AE058823D9F080913E0490913F04880FE7
:10248000991F880F991F83509D4F6AE570E00E9445
:10249000B03164577A4F80912D0590912E0591703F
:1024A00049E050E08A5C9D4F0C94313208950F93BF
:1024B0001F93CF93DF930CEC14E0C0E4D0E0F8015D
:1024C00085919491BE010E9402090E5F1F4F6E9686
:1024D000C03381E0D80799F788EF90E00E94E80CBC
:1024E000E0914206F0E0EE0FFF1FE257FB4F8591AF
:1024F000949166E171E0DF91CF911F910F910C945F
:102500000209CF93C0915204C53020F48091450652
:1025100081111DC080E00E94300B8823C1F08EE144
:10252000809322028FE1809323024AE050E064E22C
:1025300072E08C2F90E00E943A3260911D057091FC
:102540001E05717082E292E0CF910C94F608CF9153
:1025500008950F931F93CF93DF9380916B0488238B
:1025600009F463C080917304811104C010925A046D
:1025700010925904C0919A056091590470915A04BF
:1025800080E090E0C11107C00E94E22F2CEB34E7FD
:1025900043E15DE306C00E94E22F2DED3FE347EBF0
:1025A0005CE30E94D1300E94B62F8B0180912804F9
:1025B000909129049C012C5E3F4F2017310728F48D
:1025C000309329042093280407C08017910720F432
:1025D000109329040093280483E00E94300B882381
:1025E00021F18091BD0590E08017910720F4809142
:1025F000450681111AC0D0E0C55BDE4F888180930B
:1026000022024AE050E063E272E0C8010E943A32DE
:102610006091230570912405717082E292E0DF9150
:10262000CF911F910F910C94F608DF91CF911F91DC
:102630000F910895AF92BF92CF92DF92EF92FF92E7
:102640000F931F93CF93DF938AE00E94300B882370
:1026500009F44CC08091AC05882309F447C0C091AF
:102660003105D0913205D170CA5CDD4FFE017E97F5
:102670008FE7808388838E8F809174049091750496
:102680008937910534F488382FEF920724F0682FAA
:1026900003C068E701C068E8772767FD7095872F5A
:1026A000972F1F921F921F9221E12F93A12CB12CE3
:1026B000650118E8E12EFF24FA940FEF1FEF28E7D9
:1026C00030E040E050E00E94952E862F66E00E94A8
:1026D0008E3181502EE18202C00DD11D11248FE870
:1026E000891B88830F900F900F900F90DF91CF91EF
:1026F0001F910F91FF90EF90DF90CF90BF90AF9020
:10270000089580916B04882309F184E00E94300BC6
:102710008823E1F0809197058823C1F020E043E011
:1027200062E272E080915304909154040E94D209B5
:102730008DEB809325021092260260912505709101
:102740002605717082E292E00C94F608089580915B
:102750006B048823F1F181E00E94300B8823C9F1DA
:1027600080916C0490916D04A0916E04B0916F04FF
:102770000397A105B10520F480914506811129C078
:1027800020911F0530912005317080913E04909179
:102790003F04845E9D4F4091530450915404841B28
:1027A000950B880F991F880F991F8D966AE570E029
:1027B0000E94B031CB0160E170E00E94B031805ADC
:1027C0008093220210922302B90182E292E00C94DB
:1027D000F6080895209137012A3059F48091360186
:1027E000813009F4BEC0823009F4BEC08AE791E0AE
:1027F000AEC02A3008F0ABC030913501313039F528
:10280000293049F480913706883011F48AE001C0FC
:1028100088E080933701209137012093370630E01C
:102820002E5F3F4F4EE1429FC001439F900D112408
:102830000A962091360130E02150310966E0629F0E
:10284000A001639F500D1124840F951F80C032306A
:10285000E1F1333071F430933601283019F48AE015
:102860008093370180913701893009F064C087E097
:102870004EC0343079F483E080933601273019F468
:102880008AE08093370180913701893009F053C085
:1028900086E03DC0353041F483E080933601293035
:1028A00011F5309337011FC0363099F4293049F4BF
:1028B00080913706883011F48AE001C088E0809367
:1028C0003701209137012093370683E0809336014A
:1028D00034C0373069F483E080933601293019F42D
:1028E00085E08093370180913701863021F50EC055
:1028F000383081F483E080933601293019F487E081
:1029000080933701809137018830A9F48AE0809361
:10291000370111C03930D9F4293019F483E080939C
:10292000370180913701843019F48AE080933701B0
:1029300083E0809336012091370130E02E5F3F4FD6
:102940004EE1429FC001439F900D11244696209175
:102950004606222361F0FC01EA5CFD4F23E0208360
:1029600008958AE691E0F3CF80E791E0F0CF0895F3
:102970002F923F924F925F926F927F928F929F928F
:10298000AF92BF92CF92DF92EF92FF920F931F937D
:10299000CF93DF93CDB7DEB762970FB6F894DEBF63
:1029A0000FBECDBF8091A1058230A1F040F48130EF
:1029B00009F0EEC101E010E01C830B8309C08330F5
:1029C00019F0843039F0E4C122E030E03C832B83FD
:1029D0001F8206C082E090E09C838B8391E09F83FE
:1029E00080916B04882309F4D3C182E20E94300BEA
:1029F000882309F4CDC11E821D82198A1A8A9F81FB
:102A0000AD819A0F9A83892F90E0EB81FC818E171C
:102A10009F070CF0BDC18091530490915404AA818A
:102A2000A13069F42091700430917104821B930BE2
:102A3000845E9D4F68E671E00E949C310CC088590D
:102A40009E4F20913E0430913F04821B930B68E619
:102A500071E00E94B0319C016AE570E00E94B031E3
:102A600061307105C1F03CF4672B29F5BFEFB98BDC
:102A7000E1E0EA8B20C062307105B9F06330710586
:102A8000D1F488E691E0821B930B9C019FEF998B18
:102A9000AFEFAA8B10C0E4EBF0E0E21BF30B9F0159
:102AA000F1E0F98B01E00A8B06C0245B310911E0EB
:102AB000198B4FEF4A8BB901882777FD8095982FA6
:102AC0000E94E42F2BED3FE049E450E40E94D13016
:102AD00020E030E044E353E40E94492F1B012C0125
:102AE00060916C0470916D0480916E0490916F04FC
:102AF0000E94E22F4B015C01C201B1010E943431FE
:102B00009B01AC01C501B4010E94D1300E94B62FD7
:102B10006B017C01C201B1010E94462F9B01AC01F7
:102B2000C501B4010E94D1300E94B62F8B019C01D7
:102B30001B01412C512CB60180E090E0C016D1065B
:102B400018F44201310102C03B014C01F4E66F165A
:102B500071048104910490F004EF601601E07006A6
:102B60008104910480F014EC611619E0710681046F
:102B7000910470F0930144E249830EC0A1E2A9835D
:102B800024E630E009C0B2E2B98324EF31E004C0AA
:102B9000E3E2E98324EC39E079010027F7FC0095B2
:102BA000102FE886F9860A871B871F921F921F92B3
:102BB00020E1F22EFF92A12CB12C6501E884F9846A
:102BC0000A851B8520E030E0A9010E94952E6C87C4
:102BD0007D878E879F871F921F921F920FE00F9312
:102BE000E884F9840A851B8520E030E0A901C20150
:102BF000B1010E94952E0FB6F894DEBF0FBECDBF77
:102C000034E16316710481049104D8F0AA894A2F33
:102C1000552747FD5095EC85FD854E9F90014F9FB0
:102C2000300D5E9F300D1124F9894F2F552747FD38
:102C30005095469FF001479FF00D569FF00D1124CF
:102C400004C0E0E0F0E020E030E0C0906305D09008
:102C5000640501E0D022790189010F5F1F4F37FD24
:102C60007801F594E794EC0CFD1CCF0163E070E073
:102C70000E94B0314EE1469FC001479F900D112444
:102C8000E80EF91E4A81413011F045E001C044E0F0
:102C9000C90137FF04C088279927821B930BA82FEF
:102CA000A178A7FF03C0A150AE6FAF5F5A2FCF012D
:102CB000F7FF04C0882799278E1B9F0B63E00E94B3
:102CC0008E318989813019F482E0891B982FBA8965
:102CD000BF3F11F451E05A1B3296359718F491E03A
:102CE000E9899E1B0330110528F451E02F3F3F4F27
:102CF00009F450E00A81002311F080ED01C086ED57
:102D00002091A105243031F0152F110F150F190F47
:102D1000180F16C080913E0490913F0420917004DA
:102D200030917104821B930B8A519D4F68E671E0CC
:102D30000E949C316DE270E00E949C3112E7160FF8
:102D400029812093220210922302609161057091E3
:102D50006205717082E292E0488B0E94F60810933F
:102D6000220210922302B70182E292E00E94F6084A
:102D700048894093220210922302B60182E292E037
:102D80000E94F6088D819E8101969E838D8337CEA9
:102D900062960FB6F894DEBF0FBECDBFDF91CF9124
:102DA0001F910F91FF90EF90DF90CF90BF90AF9069
:102DB0009F908F907F906F905F904F903F902F905B
:102DC00008959C01E62FF0E0E358FA4FE081F0E02F
:102DD000EE0FFF1FE250FF4F85919491B9010C94C3
:102DE0000209CF92DF92EF92FF920F931F93CF933E
:102DF000DF93CDB7DEB764970FB6F894DEBF0FBE92
:102E0000CDBFE0913501EE0FFF0BEE5FFE4F8591D8
:102E1000949163E270E00E9402096BE671E082E83F
:102E200094E00E9402098091720481110CC061E754
:102E300071E088E794E00E9402096BE771E081E7A6
:102E400094E00E9402098091350181116CC080914B
:102E50001C0490911D049C838B838091220490918B
:102E600023049E838D838091260490912704988764
:102E70008F8380912804909129049A87898720E084
:102E800030E044EB53E46091360470913704809154
:102E90003804909139040E94492F0E94B12F7C87F9
:102EA0006B8780912004909121046AE070E00E9479
:102EB0009C317E876D870AE8E02E01E0F02ECE017E
:102EC00001966C010DE510E0F70185919491B80130
:102ED0000E9402094AE050E062E272E0F60181914C
:102EE00091916F010E943A32B8016F5E7F4F0E944C
:102EF000F608F2E0EF0EF11C025E1F4F0F3281E088
:102F0000180711F760911A0470911B0480E090E09B
:102F100021E042E252E00E948C0A6DE670E082E21B
:102F200092E00E94F60880913501813009F06DC071
:102F30001AE7E12E11E0F12E0DE510E0F701859181
:102F40009491B8010E94020992E0E90EF11C025E20
:102F50001F4F0D34E1E01E0789F700E0053019F03E
:102F6000073028F001C007E0D02E025001C0D02E5B
:102F7000FEE10F9F80011124ED2CF12CF701ED5E95
:102F8000FA4F80814AE050E062E272E090E00E94F5
:102F90003A32B8016B597F4F0E94F608F701E75F9C
:102FA000FA4F80814AE050E062E272E090E00E94D5
:102FB0003A32B80165597F4F0E94F608F701E15097
:102FC000FB4F80814AE050E062E272E090E00E94B4
:102FD0003A32B8016F587F4F0E94F60801E00D0D9C
:102FE0000A3008F4BBCF67E470E08BE391E00E9405
:102FF000F6086DE470E08DE391E00E94F60863E569
:1030000070E08FE391E00E94F608809135018230F4
:10301000E9F180913501833009F0EDC00E9410067E
:1030200087E98093220223E044E063E272E080912A
:103030002E0490912F040E94D20919EA10932702BE
:103040001092280264E370E082E292E00E94F608A7
:103050008FEB8093220223E044E063E272E08091F0
:103060002C0490912D040E94D209109327021092F3
:1030700028026CE270E082E292E00E94F608AAE583
:10308000EA2EA1E0FA2E0DE510E056C08091FE0474
:1030900090E09A8389838091FD0490E09C838B83E8
:1030A0008091FC0490E09E838D838091FB0490E0EE
:1030B00098878F838091FA0490E09A87898780911E
:1030C000F90490E09C878B878091F80490E09E87BC
:1030D0008D878091F70490E0988B8F878091F5041D
:1030E0009091F6049A8B898BB8E6EB2EB1E0FB2E1B
:1030F000CE0101966C010DE510E0F70185919491E8
:10310000B8010E9402094AE050E062E272E0F60172
:10311000819191916F010E943A32B8016C5E7F4FAC
:103120000E94F608F2E0EF0EF11C025E1F4F0B3614
:1031300081E0180711F76DCFF70185919491B801DF
:103140000E94020992E0E90EF11C025E1F4F0F324D
:10315000E1E01E0789F780918E054AE050E062E2C7
:1031600072E090E00E943A326BEC70E00E94F60848
:1031700067E081E790E00E94E116809187054AE0D0
:1031800050E062E272E090E00E943A326FE870E054
:103190000E94F608809185054AE050E062E272E004
:1031A00090E00E943A326DEA70E00E94F60861E118
:1031B0008BEC90E00E94E11680918F054AE050E090
:1031C00062E272E090E00E943A3269EE70E00E94A2
:1031D000F608809186054AE050E062E272E090E0F5
:1031E0000E943A3267E071E00E94F6086BE085E2E7
:1031F00091E00E94E11680913501843009F072C09F
:103200004AE050E062E272E080913204909133042F
:103210000E943A320E94250BA82FB0E0AE5DBD4F50
:1032200095E29C938F5FE82FF0E0EE5DFD4F1082FA
:1032300065E370E082E292E00E94F608FEE4EF2E81
:10324000F1E0FF2E0DE510E0F70185919491B801B2
:103250000E940209F2E0EF0EF11C025E1F4F0131E5
:1032600081E0180789F764E081E790E00E94E116A9
:1032700080914906882351F04AE050E062E272E012
:1032800090E00E943A326FE870E004C06FE870E0AE
:1032900081E491E00E94F60865E08DEA90E00E94EA
:1032A000E11666E08BEC90E00E94E1164AE050E007
:1032B00062E272E080917705909178050E943A323F
:1032C00069EE70E00E94F6084AE050E062E272E0C7
:1032D00080917505909176050E943A3267E071E021
:1032E0000E94F60880913501853009F05CC060913C
:1032F0003A0470913B0480913C0490913D040E94FB
:10330000B12FDC01CB0123E044E062E272E00E94D5
:10331000D2098AE9809326021092270264E370E0C2
:1033200082E292E00E94F608E4E4EE2EE1E0FE2E56
:103330000DE510E0F70185919491B8010E94020912
:1033400092E0E90EF11C025E1F4F033F110591F759
:103350006CE081E790E00E94E1166EE08FE890E07B
:103360000E94E1166FE08DEA90E00E94E1164AE0CB
:1033700050E062E272E080917305909174050E94C2
:103380003A326BEC70E00E94F6084AE050E062E2EC
:1033900072E080917105909172050E943A3269EE57
:1033A00070E00E94F60880913501863009F045C032
:1033B00074E3E72E71E0F72E0DE510E0F70185913B
:1033C0009491B8010E940209E2E0EE0EF11C025E47
:1033D0001F4F0D34F1E01F0789F760E281E790E0AD
:1033E0000E94E11661E28FE890E00E94E1166DE232
:1033F0008DEA90E00E94E1166FE18BEC90E00E9474
:10340000E11667E189EE90E00E94E11664E387E04F
:1034100091E00E94E1166EE285E291E00E94E116E1
:103420008091A1054AE050E062E272E090E00E94E3
:103430003A3263E471E00E94F608809135018730EA
:1034400009F054C06AE2E62E61E0F62E0DE510E0C8
:10345000F70185919491B8010E94020982E0E80E7B
:10346000F11C025E1F4F033F110591F780919A05F1
:1034700061E770E0811103C089E392E002C085E357
:1034800092E00E9402098091A2056FE870E0882313
:1034900019F08CE292E002C087E292E00E940209F9
:1034A0006CE28DEA90E00E94E11680914A06882342
:1034B00051F04AE050E062E272E090E00E943A325D
:1034C0006BEC70E004C06BEC70E081E491E00E9472
:1034D000F6088091B7054AE050E062E272E090E0C1
:1034E0000E943A3269EE70E00E94F6088091350140
:1034F000883009F04FC08091BB0590E09A838983A2
:103500008091BC0590E09C838B838091BD0590E009
:103510009E838D838091BE0590E098878F838091F4
:10352000910590E09A8789878091920590E09C8729
:103530008B870DE510E0E12CF12CD12CF701E45E36
:10354000FE4F85919491B8010E94020996E0D91628
:1035500099F04AE050E062E272E0E1E0F0E0EC0F66
:10356000FD1FEE0DFF1D808191810E943A32B8014E
:103570006C5E7F4F0E94F608D394E2E0EE0EF11CE1
:10358000025E1F4FF7E0DF12D9CF60E185E291E0E4
:103590000E94E11680913501893039F08091350122
:1035A0008A30D4F11092350137C08091F30490E055
:1035B0009A8389838091F00490E09C838B8380912F
:1035C000EE049091EF049E838D8356E1E52E51E049
:1035D000F52ECE0101966C010DE510E0F701859105
:1035E0009491B8010E9402094AE050E062E272E060
:1035F000F601819191916F010E943A32B8016C5E9F
:103600007F4F0E94F608F2E0EF0EF11C025E1F4FA2
:10361000073B110519F7C2CF64960FB6F894DEBFC9
:103620000FBECDBFDF91CF911F910F91FF90EF9013
:10363000DF90CF900C94EA130F931F93CF93DF93F7
:103640008EE00E94300B882309F4B4C080918D0570
:10365000882309F4AFC080917304811109C080915F
:1036600016048260809316048EE18093390116C09F
:1036700090913901992369F08091460681119AC091
:1036800080911604846080931604915090933901C0
:1036900005C08091160481608093160480912B04EC
:1036A00090E020912E0430912F048217930728F088
:1036B0008091160480648093160480917C0483FFBB
:1036C0001CC080915204853028F4809116048062D9
:1036D0008093160480915406811105C080911604D0
:1036E00080618093160480915306811106C08091F9
:1036F00016048F7C886080931604809117048111D2
:1037000004C0809116048093170480911704D82F69
:10371000D195D8230E94292B009155061091560669
:1037200020915706309158060C501E4F2F4F3F4F97
:10373000061717072807390798F49091170499235B
:1037400029F08D2F80958923809317040E94292BBF
:1037500060935506709356068093570690935806CB
:1037600080E090E02D2F30E0E82FA901082E02C064
:10377000559547950A94E2F740FFEC2F0196873064
:10378000910511F0CE2FF0CF80911604823090F089
:10379000F0E0EE0FFF1FEB5DFA4F85919491609181
:1037A000390570913A057170DF91CF911F910F919A
:1037B0000C940209DF91CF911F910F9108951F93EF
:1037C000CF93DF931F92CDB7DEB7DC01CB01142F6F
:1037D000642F70E06E5D7D4F4AE050E029830E94C7
:1037E0003A322981113051F4E0919A05F0E0ED5B15
:1037F000FE4FE20FF11D8081809322020F90DF9136
:10380000CF911F910895CF92DF92EF92FF92809116
:103810009605882309F450C085E00E94300B882368
:1038200009F44AC080919A058823A9F060915F0449
:103830007091600480916104909162040E94E42F71
:1038400021EA38EF41E550E40E94D1300E94B12FC7
:103850006B017C0108C0C0905F04D0906004E090D0
:103860006104F0906204C701B6012AE030E040E054
:1038700050E00E94E6318091BC0590E0A0E0B0E00D
:10388000281739074A075B0724F080914506811104
:1038900013C020E041E0C701B6010E94DF1B609128
:1038A000270570912805717082E292E0FF90EF90F9
:1038B000DF90CF900C94F608FF90EF90DF90CF90C0
:1038C0000895EF920F93CF93DF9380916B04882339
:1038D00009F46DC00E94031C81E10E94300B882313
:1038E00009F465C0409178045091790460917A049C
:1038F00070917B048091D0059091D10521E030E05A
:10390000411551056105710511F020E030E02823D3
:103910003923232B09F04BC0A0E0B0E0842395238A
:10392000A623B72320919405822B892B8A2B8B2BDE
:10393000F1F1C0913F05D0914005D1708AEC8093A0
:1039400022026091670470916804809169049091EB
:103950006A0423E5E22E0EE424E043E252E00E94F2
:10396000200ABE0182E292E00E94F608C091410561
:10397000D0914205D1708BEC809322026091630458
:1039800070916404809165049091660437E5E32E9C
:1039900005E424E043E252E00E94200ABE0182E2F4
:1039A00092E0DF91CF910F91EF900C94F608DF91A8
:1039B000CF910F91EF900895CF93DF9380919A0567
:1039C0008823A1F06091EA047091EB048091EC04EB
:1039D0009091ED040E94E42F2EEA31E646E05DE38B
:1039E0000E94D1300E94B12FEB010FC06091EA0418
:1039F0007091EB048091EC049091ED0424E630E0AA
:103A000040E050E00E94E631E90180917304882390
:103A100089F080913C0690913D06069758F0809180
:103A20002604909127048C179D0724F4D093270433
:103A3000C093260489E00E94300B882339F18091DD
:103A4000AD05882319F1CE016AE070E00E94B03123
:103A50008091BC0590E06817790724F080914506B5
:103A6000811114C0BE01882777FD8095982F20E032
:103A700041E00E94DF1B60912F057091300571704D
:103A800082E292E0DF91CF910C94F608DF91CF9122
:103A90000895CF92DF92EF92FF92CF93DF938091C0
:103AA0006B04882309F45DC080919A058823A1F0F6
:103AB00060916C0470916D0480916E0490916F041C
:103AC0000E94E22F21EA38EF41E550E40E94D13014
:103AD0000E94B62FEB0104C0C0916C04D0916D041C
:103AE0006E01E12CF12C8091220490912304A0918D
:103AF0002404B09125048C159D05AE05BF0540F446
:103B0000C0922204D0922304E0922404F09225046F
:103B100082E00E94300B882321F1CE0164E670E040
:103B20000E949C318091BB0590E06817790720F0D6
:103B300080914506811115C022E041E0C701B60120
:103B40000E94DF1B6091210570912205717082E255
:103B500092E0DF91CF91FF90EF90DF90CF900C94A7
:103B6000F608DF91CF91FF90EF90DF90CF9008950E
:103B7000E091730181E08E0F80937301F0E0E858CB
:103B8000FE4F80810895CF93DF930E94B81DC82F08
:103B9000D0E00E94B81D9E01382BC901DF91CF9162
:103BA0000895CF92DF92EF92FF920E94C31D6C01A5
:103BB000E12CF12C0E94C31DA0E0B0E0772766271E
:103BC0006C297D298E299F29FF90EF90DF90CF905F
:103BD000089526E040E052EC61E070E083E696E074
:103BE0000E94562D8091C00082608093C000109288
:103BF000C50080E18093C40083E696E00E94CF2C4C
:103C000084B18C6284B92498569A529860E084E119
:103C10000E94042C60E081E10E94042C60E081E1BC
:103C20000E94042C61E087E00E94042C0E9463083B
:103C30000E948E050E94510564EF71E080E090E0E3
:103C40000E94582B8091A205882311F081E001C0C9
:103C500083E00E94BB2B0E9429090C94E203CF93BE
:103C6000C82F682F83E696E00E94F12C9091720194
:103C70009C2790937201CF910895CF93DF931F9269
:103C8000CDB7DEB799830E942F1E9981892F0F909F
:103C9000DF91CF910C942F1E6091720183E696E024
:103CA0000C94F12CCF93DF93D82FC62F64E270E0F1
:103CB00083E696E00E94A5036DE470E083E696E05B
:103CC0000E94A5036CE370E083E696E00E94A503E2
:103CD000109272018C2F0E942F1E8D2F0E942F1E7A
:103CE000C11104C0DF91CF910C944C1EDF91CF9194
:103CF0000895CF936FE18CED0E94521E89E00E94DF
:103D00002F1ECAE06091F4057091F50589E596E0F3
:103D10000E94D82A8093F3058091F4059091F505CF
:103D20000E943D1E8091F3050E942F1E8091F40594
:103D30009091F50501969093F5058093F405C15097
:103D400009F7CF910C944C1E63E08CED0E94521E3B
:103D500089E00E942F1E8091F4059091F5050E9444
:103D60003D1E0C944C1E61E082ED0E94521E80911B
:103D7000F3040E942F1E0E944C1E60E08AEF0E94F6
:103D8000521E0E94E20364E670E080E090E00C9432
:103D9000582B81E0809335018AE08093370183E0DE
:103DA0008093360110923006109272048091A00523
:103DB000882301F110921C0410921D0410921E041D
:103DC00010921F04109222041092230410922404D3
:103DD00010922504109227041092260410922904B0
:103DE00010922804109221041092200410921B04B7
:103DF00010921A048091F1049091F304981721F025
:103E00008093F3040E94B31E0C94E203EF92FF929E
:103E10000F931F93CF93DF938091F3048093F1046A
:103E200061E08CE30E94521E8091F0040E942F1EDC
:103E30000E944C1E62E08AE40E94521E8091EE04B1
:103E40009091EF040E943D1E0E944C1E6EE18AEC90
:103E50000E94521EC3E1D5E059E0E52E55E0F52E53
:103E60000FEF14E089910E942F1EF70181917F01CD
:103E70000E942F1EF80181918F010E942F1EF5E0F4
:103E8000CD31DF0779F70E944C1E6BE08CEC0E946D
:103E9000521E8091FE040E942F1E8091FD040E94FC
:103EA0002F1E8091FC040E942F1E8091FB040E9413
:103EB0002F1E8091FA040E942F1E8091F9040E9407
:103EC0002F1E8091F8040E942F1E8091F7040E94FB
:103ED0002F1E8091F5049091F6040E943D1E809162
:103EE000F4040E942F1E0E944C1E0E94CE0460E02B
:103EF0008AEF0E94521EDF91CF911F910F91FF9088
:103F0000EF900C94C91E809137018A30C9F49091CA
:103F100036019330A9F490913E0692301CF091E066
:103F200090933E0690913E069F3F1CF49FEF909326
:103F30003E069091350120913E06920F90933501F7
:103F40009091350197FF03C099E0909335019091CE
:103F500035019A3014F0109235019091350191306D
:103F600019F5EFEFE80FE83008F058C2863010F08E
:103F7000E1E0E80F80913601823049F0833081F032
:103F8000813009F04BC2F0E0ED5EFA4F03C0F0E083
:103F9000E75FFA4F808190913E06890F80833EC291
:103FA000F0E0E150FB4FF6CF923009F050C0909115
:103FB0003601933009F032C2482F50E0FA013197B0
:103FC000E930F10508F02AC2EC5CFF4F20913E0673
:103FD0000C9405328091FE04820F8093FE041EC271
:103FE0008091FD04820F8093FD0418C28091FC042F
:103FF000820F8093FC0412C28091FB04820F809395
:10400000FB040CC28091FA04820F8093FA0406C26A
:104010008091F904820F8093F90400C28091F80422
:10402000820F8093F804FAC18091F704820F809385
:10403000F704F4C18091F5049091F604820F911D6C
:1040400027FD9A959093F6048093F504E7C1933089
:1040500009F049C090913601933009F0DFC1482F33
:1040600050E0FA013197E730F10508F0D7C1E35C81
:10407000FF4F0C94053281E090918405911180E00E
:1040800080938405CBC180913E0690918705890F6E
:1040900080938705C3C180913E0690918505890F65
:1040A00080938505BBC181E090918E05911180E0E0
:1040B00080938E05B3C180913E0690918F05890F44
:1040C00080938F05ABC180913E0690918605890F44
:1040D00080938605A3C181E090918805911180E0CD
:1040E000809388059BC1943009F04DC090913601B2
:1040F000933009F093C1833039F148F48130E1F015
:10410000823009F08BC18FE08093490687C18530EA
:1041100059F110F1863009F081C120913E0680915D
:10412000750590917605820F911D27FD9A959093C4
:1041300076058093750572C181E09091810591119A
:1041400080E0809381056AC181E0909182059111A0
:1041500080E08093820562C181E090918305911196
:1041600080E0809383055AC120913E0680917705B7
:1041700090917805820F911D27FD9A95909378056F
:10418000809377054BC1953009F048C09091360176
:10419000933009F043C1833051F128F48130B9F0F4
:1041A0008230E9F03BC1843051F1853009F036C1ED
:1041B00020913E068091710590917205820F911DAC
:1041C00027FD9A95909372058093710527C181E030
:1041D00090918905911180E0809389051FC181E04C
:1041E00090918B05911180E080938B0517C181E040
:1041F00090918C05911180E080938C050FC12091E6
:104200003E068091730590917405820F911D27FDE4
:104210009A95909374058093730500C1963009F0C8
:1042200050C090913601933009F0F8C090E0FC0145
:104230003197E830F10508F0F1C0EC5BFF4F0C94CA
:10424000053281E090919D05911180E080939D055C
:10425000E5C081E090919E05911180E080939E05DC
:10426000DDC081E09091AA05911180E08093AA05BC
:10427000D5C081E090919C05911180E080939C05D0
:10428000CDC081E090919405911180E080939405D8
:10429000C5C081E09091B105911180E08093B10596
:1042A000BDC081E09091AB05911180E08093AB059A
:1042B000B5C080913E069091A105890F8093A1051C
:1042C000ADC09730B1F590913601933009F0A6C09A
:1042D000833019F128F4813081F08230B1F09EC032
:1042E000843019F1853009F099C080913E06909193
:1042F000B705890F8093B70591C081E090919A0529
:10430000911180E080939A0589C081E09091A20587
:10431000911180E08093A20581C081E09091A90570
:10432000911180E08093A90579C08AE080934A06C4
:1043300075C0983009F048C090913601933009F06B
:104340006DC090E0FC013197E730F10508F066C0E0
:10435000E45BFF4F0C94053280913E069091BB05C3
:10436000890F8093BB055AC080913E069091BC0591
:10437000890F8093BC0552C080913E069091BD0587
:10438000890F8093BD054AC080913E069091BE057D
:10439000890F8093BE0542C080913E0690919105A1
:1043A000890F809391053AC080913E0690919205C5
:1043B000890F8093920532C081E090918D05911113
:1043C00080E080938D052AC0993041F590913601A7
:1043D000933021F5823061F0833091F08130F1F437
:1043E0008091F30490913E06890F8093F30416C0E8
:1043F0008091F00490913E06890F8093F0040EC0E6
:1044000020913E068091EE049091EF04820F911D61
:1044100027FD9A959093EF048093EE048091F30426
:10442000833010F01092F3049091F3048091F20421
:10443000981731F00E94B31E8091F3048093F20428
:10444000809137018A3079F480913501809334016D
:1044500080913601813019F0823019F008950C9462
:10446000C91E0C94061F08950F931F938091160187
:1044700090911701855195408F389140C8F48091F3
:10448000140190911501855195408F38914080F429
:104490008091180190911901855195408F38914074
:1044A00038F41092680188EE93E0A0E0B0E025C0F7
:1044B00080916801813049F50E94292B00916001AB
:1044C000109161012091620130916301601B710BB9
:1044D000820B930B0091640110916501209166019C
:1044E00030916701061717072807390710F4109253
:1044F00068018CE291E0A0E0B0E0809364019093C9
:104500006501A0936601B0936701809168018111F4
:10451000E1C08091160190911701209130068B33F4
:10452000974040F180911801909119018B33974089
:1045300008F180911A0190911B018F379440D0F0BF
:104540002111BAC080913C0690913D06069708F46F
:10455000B3C0809173048111AFC082E08093680181
:1045600081E08093300680913401809335010E9470
:10457000E203A2C0222309F49FC010913E061092CC
:104580003E0680917204882361F080911A01909117
:104590001B018531954028F082E0809368010E94DC
:1045A000C91E30913006332309F451C080911401A3
:1045B000909115018B3327E0920778F081E080938A
:1045C0006801809136018F5F80933601843008F452
:1045D00073C083E0809336016FC08E37944068F4D7
:1045E00091E090936801809136018150809336016B
:1045F000811162C0909336015FC080911601909145
:1046000017018B3327E0920788F091E090936801BF
:1046100080913701815019F08093370102C0909347
:10462000370180913501811147C00DC08E3794400C
:1046300070F481E080936801809137018F5F8093EF
:1046400037018B30C8F18AE08093370135C0809103
:104650007204811131C0332379F1212F16300CF00F
:1046600025E02B3F0CF42BEF80911801909119015C
:104670008E3734E0930738F481E08093680121504D
:1046800020933E0617C08B339740B0F081E08093B3
:1046900068012F5F20933E0680913501883051F4E8
:1046A00080913601833031F480913701853011F4E7
:1046B00010924A060E94831F80916801813051F454
:1046C0000E94292B609360017093610180936201C5
:1046D000909363011F910F910895CF92DF92EF9213
:1046E000FF920F931F93CF93DF931092730183E098
:1046F00080935306809175018C3D09F0D8C00E94CB
:10470000B81D893041F50E94B81DC82FD0E0D09364
:10471000F505C093F4050E94B81DC80FD11DD093B4
:10472000F505C093F4050E94B81D8093F30581E060
:104730008093F2050E94292B6854744F8F4F9F4F2E
:104740006093EE057093EF058093F0059093F1056B
:104750000E94791EACC0883009F056C01AE001E012
:104760000E94B81DC82FD0E0D093F505C093F40582
:104770000E94B81D282F30E0322F22272C0F3D1F1A
:104780003093F5052093F4050E94B81D8093F3053E
:104790000093F2050E94292B6854744F8F4F9F4F4E
:1047A0006093EE057093EF058093F0059093F1050B
:1047B0006091F4057091F5054091F30589E596E067
:1047C0000E94DB2A4CE060E070E089E596E00E9400
:1047D000DB2A8091F4059091F5058A35910519F051
:1047E0008035914011F40E945105115009F0B8CF65
:1047F0008091F4059091F50501969093F5058093CD
:10480000F4050E94A41E53C08730D1F46BE08CEDF8
:104810000E94521E87E00E942F1ECEE8D4E08881BD
:104820009981F3E096958795FA95E1F70E943D1EF0
:10483000649684E0C23FD80791F70E944C1E37C0AF
:10484000833049F580917601853081F40E94C31D43
:1048500080329D4161F50E94B81D8093F8050E9449
:10486000B81D8093F7050E94CF0321C08833F9F467
:10487000C9EFD5E00E94B81D8993B6E0CF32DB07BF
:10488000C9F70E94B81DC82F0E948309CF3F79F451
:104890000E9429090CC0863029F40E94DE080E947B
:1048A0008E0502C0853019F481E080934106809125
:1048B0007501843641F481E080933F060E94B81D63
:1048C000809377044BC08536D9F50E94C31D909321
:1048D0003B0680933A060E94C31D9093390680934D
:1048E00038060E94C31D90937D0480937C040E942F
:1048F000D11D609378047093790480937A04909327
:104900007B042091C905C22ED12CE12CF12CC622AA
:10491000D722E822F92221E0CD28CE28CF2809F499
:1049200020E0209373040E94B81D8093F3049091BB
:104930003006911113C08093F1048093F2040EC0ED
:10494000893661F4C4E1D1E00E94C31D8993999333
:10495000E1E0C432DE07C1F70E9434228091750184
:104960008A3609F053C085E0809354060E94B81D32
:10497000882319F081E080936B040E94B81D809316
:1049800052040E94D11D6093670470936804809361
:10499000690490936A040E94D11D6093630470932C
:1049A000640480936504909366040E94C31DA0E094
:1049B000B0E020917304211108C080935B049093B0
:1049C0005C04A0935D04B0935E0440915B0450913D
:1049D0005C0460915D0470915E04841B950BA60BD2
:1049E000B70B80935F0490936004A0936104B0932D
:1049F00062040E94C31D90935A04809359040E943C
:104A0000C31D9093580480935704BFC18B3699F40B
:104A10000E94C31DA0E0B0E080936C0490936D04ED
:104A2000A0936E04B0936F040E94C31D909354042E
:104A300080935304AAC18C36A9F40E94C31D90939D
:104A4000E3048093E2040E94C31D9093E5048093E5
:104A5000E4040E94C31D843B91050CF492C1885666
:104A600091408FC18D3689F40E94D11D6093EA0474
:104A70007093EB048093EC049093ED040E94C31DAB
:104A8000909375048093740480C18E36B9F40E94AB
:104A9000B81D809376040E94C31D909351048093A7
:104AA00050040E94C31D90934F0480934E040E94B3
:104AB000C31D909335048093340467C18F36A1F5EC
:104AC0000E94B81D8093FE040E94B81D8093FD04CF
:104AD0000E94B81D8093FC040E94B81D8093FB04C3
:104AE0000E94B81D8093FA040E94B81D8093F904B7
:104AF0000E94B81D8093F8040E94B81D8093F704AB
:104B00000E94C31D9093F6048093F5040E94B81D83
:104B10008093F40480911E0290911F02A0912002C4
:104B2000B09121029D7F46C0803719F5C3E1D5E0E1
:104B300009E015E0EFEFEE2EE4E0FE2E0E94B81D36
:104B400089930E94B81DD8018D938D010E94B81DD4
:104B5000F70181937F01F5E0CD31DF0779F780918F
:104B60001E0290911F02A0912002B09121029B7F12
:104B700021C08B3371F40E94B81D8093F0048091A2
:104B80001E0290911F02A0912002B0912102AB7FE2
:104B900011C08934C1F40E94C31D9093EF04809327
:104BA000EE0480911E0290911F02A0912002B0910C
:104BB0002102A77F80931E0290931F02A0932002E0
:104BC000B0932102E2C0873709F0DFC081E0809313
:104BD0004006C091760185E2E9ECF5E0DF011D9227
:104BE0008A95E9F7C12CD12C7601C394CC2309F422
:104BF000CCC00E94B81D992787FD9095A92FB92F89
:104C00008D31910508F0B7C0FC01ED5AFF4F0C94AF
:104C100005328091C9058C298093C905ACC080916B
:104C2000CA058C298093CA05A6C08091CB058C2922
:104C30008093CB05A0C08091CC058C298093CC05B6
:104C40009AC08091CD058C298093CD0594C0809128
:104C5000CE059091CF058C299D299093CF05809307
:104C6000CE0589C08091D0059091D1058C299D29D0
:104C70009093D1058093D0057EC08091D20590910C
:104C8000D3058C299D299093D3058093D20573C0B9
:104C90008091D4059091D5058C299D299093D505B7
:104CA0008093D40568C08091E2059091E305A091BE
:104CB000E405B091E5058C299D29AE29BF29809393
:104CC000E2059093E305A093E405B093E50553C096
:104CD0008091DE059091DF05A091E005B091E1059E
:104CE0008C299D29AE29BF298093DE059093DF058D
:104CF000A093E005B093E1053EC08091E605909158
:104D0000E705A091E805B091E9058C299D29AE2918
:104D1000BF298093E6059093E705A093E805B0933B
:104D2000E90529C08091EA059091EB05A091EC0579
:104D3000B091ED058C299D29AE29BF298093EA0504
:104D40009093EB05A093EC05B093ED0514C0809112
:104D5000D6059091D705A091D805B091D9058C2999
:104D60009D29AE29BF298093D6059093D705A0939E
:104D7000D805B093D905CC0CDD1CEE1CFF1CC1502E
:104D800035CF90933F0480933E04DF91CF911F91E4
:104D90000F91FF90EF90DF90CF900895FF920F93C7
:104DA0001F93CF93DF93F82E83E696E00E94732C37
:104DB00021E0892B09F420E0C5E0D0E004E010E018
:104DC000213009F06DC083E696E00E948C2C209182
:104DD0005E0130915F012115310529F421E030E0B9
:104DE000843289F412C02130310529F48D3459F40C
:104DF00022E030E00AC02230310561F48E3319F42C
:104E000023E030E002C020E030E030935F012093E7
:104E10005E013EC02330310559F4873960F5809337
:104E2000760110935F0100935E018093740130C09E
:104E30002430310571F4D0935F01C0935E018093FB
:104E400075019091740198279093740110927701E5
:104E50001FC025303105E1F490917401982790939B
:104E60007401E091770120917601E21309C091115C
:104E700002C00E946D2310925F0110925E0108C073
:104E800091E09E0F90937701F0E0E858FE4F808309
:104E900083E696E00E94732C892B11F0F11093CFDA
:104EA000DF91CF911F910F91FF900895CF92DF92E4
:104EB000EF92FF920E94292B6B017C0188E2C80EC1
:104EC000D11CE11CF11C81E080930E0280910E0246
:104ED000882371F00E94292BC616D706E806F9062A
:104EE00018F410920E02F2CF80E00E94CE26EECF90
:104EF000FF90EF90DF90CF900895FF920F931F9354
:104F0000CF93DF935E9860E085E00E941A0960E02D
:104F100086E00E941A0961E084E00E941A090E945A
:104F2000562706E312E0C0E0D0E0B0E2FB2E80910D
:104F3000100290911102C817D90778F4C03FD1052B
:104F400011F40E945627F801608187E00E941A0937
:104F5000F801F1928F012196EACF6FEF87E00E946E
:104F60001A0960E084E00E941A095E9ADF91CF91ED
:104F70001F910F91FF900895CF92DF92EF92FF92D1
:104F80000F931F931092160480914106882311F00D
:104F90000C940000E091B705E093380110923206BE
:104FA0008091B6058823A1F0F0E0EE0FFF1FEE5EC2
:104FB000FE4F80819181813426E0920710F081E0DC
:104FC00004C089379540E0F082E08093320618C033
:104FD0008091DE059091DF05A091E005B091E1059B
:104FE000409178045091790460917A0470917B0427
:104FF00084239523A623B723892B8A2B8B2BF9F6A1
:10500000909132068091310698130E940B05809191
:1050100032068093310680914306863010F061E0BD
:1050200001C060E087E00E943D2C0E94292B6B01AB
:105030007C018091160290911702A0911802B09104
:105040001902B701A601481B590B6A0B7B0B4436AA
:1050500051056105710508F445C08C599F4FAF4F4C
:10506000BF4F8093160290931702A0931802B0933B
:105070001902809143068F5F809343068091440616
:105080008F5F8093440681E090914606911180E005
:10509000809346060E94830480918B058823D1F07B
:1050A00020913A0430913B0440913C0450913D04DE
:1050B00060913604709137048091380490913904DE
:1050C0000E94DE2E60933604709337048093380478
:1050D0009093390480912F06811104C060E08CE622
:1050E0000E94521E8091120290911302A09114020C
:1050F000B0911502C81AD90AEA0AFB0A22E3C216BD
:10510000D104E104F10408F4B4C1C296A11DB11D9B
:105110008093120290931302A0931402B09315028D
:1051200080911A0290911B02A0911C02B0911D0265
:10513000892B8A2B8B2B81F480911E0290911F0268
:10514000A0912002B091210280931A0290931B0239
:10515000A0931C02B0931D0200911A0210911B0231
:1051600020911C0230911D0288279927DC01801BA9
:10517000910BA20BB30B80239123A223B323AC0189
:10518000BD01409550956095709540235123622351
:10519000732340931A0250931B0260931C02709376
:1051A0001D02811521E09207A105B10509F458C03F
:1051B00028F588309105A105B10509F44BC068F4C4
:1051C00081309105A105B10509F442C00297A105FE
:1051D000B10509F051C085E650C080329105A105A6
:1051E000B105E1F180389105A105B105A9F140971C
:1051F000A105B10509F040C08DE63FC0811520E151
:105200009207A105B105B1F198F4811524E0920748
:10521000A105B10549F1811528E09207A105B10565
:1052200039F181159240A105B10531F58FE625C010
:10523000009724E0A207B105A9F0009728E0A20793
:10524000B105A1F00097A140B105B1F482E715C006
:1052500084E613C089E611C08AE60FC08BE60DC054
:105260008EE60BC08BE309C080E707C089E405C068
:1052700087E703C08CED01C080E090912F0691116B
:1052800005C060E00E94521E0E947D270E94100609
:1052900080913C0690913D06089760F40E94571259
:1052A0008091420490914304CC9790934806809358
:1052B0004706DFC080917304882349F081E0809322
:1052C000720480913006813011F40E94C91E8091D1
:1052D0007204882381F08091730481110CC01092B4
:1052E00035018AE08093370181E080933601809315
:1052F00030060E94E20380913006882319F00E9454
:10530000F116B7C00E94E20380917C0480FF0AC0BE
:105310006091E4047091E5048091E2049091E304CB
:105320000E94F90C8091840581110E94220F8091C6
:105330008E0581110E94B30F80918105882379F039
:105340008091800590E020913204309133048217DF
:1053500093071CF08091450681110E94D011809125
:105360008905882321F120E030E040E251E460919A
:105370003A0470913B0480913C0490913D040E945A
:10538000492F6B017C016091920570E080E090E014
:105390000E94E42F9B01AC01C701B6010E94422F7D
:1053A00087FD03C08091450681110E94D510809130
:1053B0008B05882349F00E94AC03882309F4F5C0CB
:1053C000809145068111F1C00E9481100E94211137
:1053D0000E941C1B80919C0581110E94E70F809107
:1053E0004204909143042091470630914806A90158
:1053F000445C5F4F48175907A0F4205C3F4F2817C3
:10540000390720F490934806809347068091A505BC
:10541000882339F080916B0590916C0591700E9402
:10542000E80C80917C0482FF04C00E9432120E942A
:10543000FC1180917C0481FF04C00E94DC1C0E944E
:105440001A1380917C0483FF12C0809193058823F6
:1054500071F00E9481120E94A7130E94491D0E94B0
:1054600081130E94A9120E94611C0E94B8140E941C
:10547000400B80914406853048F01092440681E04C
:1054800090914506911180E0809345060E94292B5A
:1054900000914F061091500620915106309152060E
:1054A00008511C4F2F4F3F4F061717072807390782
:1054B00008F072C000934F061093500620935106D7
:1054C0003093520610924306809142049091430417
:1054D0000196909343048093420480912F0681119A
:1054E00002C00E94BC0980915406811103C0109231
:1054F000520403C081508093540680915306882340
:1055000019F081508093530680917304811109C072
:1055100080913E0490913F049093710480937004B5
:1055200016C08091400490914104019690934104EB
:105530008093400480911A0490911B0401969093EB
:105540001B0480931A04109230060E94E20380919B
:105550003C0690913D06019690933D0680933C0653
:1055600080914A06813051F480913006882331F0D1
:1055700060E08EEC0E94521E10924A0680914A060C
:10558000882319F0815080934A0680914906882328
:1055900019F081508093490681E01F910F91FF908F
:1055A000EF90DF90CF900C94CE260E94A6110CCFE6
:1055B000CB010C946A32CB01642F0C9472321F928F
:1055C0000F920FB60F9211242F933F938F939F93B7
:1055D000AF93BF9380915B0690915C06A0915D06AE
:1055E000B0915E0630915A0623E0230F2D3720F448
:1055F0000196A11DB11D05C026E8230F0296A11D2D
:10560000B11D20935A0680935B0690935C06A0938D
:105610005D06B0935E0680915F0690916006A09152
:105620006106B09162060196A11DB11D80935F06CF
:1056300090936006A0936106B0936206BF91AF910C
:105640009F918F913F912F910F900FBE0F901F90C0
:1056500018952FB7F89460915B0670915C06809165
:105660005D0690915E062FBF08953FB7F894809134
:105670005F0690916006A0916106B091620626B522
:10568000A89B05C02F3F19F00196A11DB11D3FBF7A
:105690006627782F892F9A2F620F711D811D911D0A
:1056A00042E0660F771F881F991F4A95D1F708952A
:1056B000CF92DF92EF92FF92CF93DF936B017C0149
:1056C0000E94352BEB01C114D104E104F10489F0EF
:1056D0000E94DC2E0E94352B6C1B7D0B683E7340B4
:1056E00090F381E0C81AD108E108F108C851DC4FF5
:1056F000EACFDF91CF91FF90EF90DF90CF900895A8
:10570000789484B5826084BD84B5816084BD85B59C
:10571000826085BD85B5816085BDEEE6F0E0808163
:1057200081608083E1E8F0E0108280818260808384
:10573000808181608083E0E8F0E080818160808307
:10574000E1EBF0E0808184608083E0EBF0E0808139
:1057500081608083EAE7F0E08081846080838081DB
:105760008260808380818160808380818068808383
:105770001092C100089580933A0108958E3008F088
:105780008E50877020913A0190E4299F9001112456
:10579000822B80937C0080917A00806480937A00D1
:1057A00080917A0086FDFCCF80917800209179006D
:1057B00090E0922B0895833081F028F4813099F0A5
:1057C0008230A1F008958730A9F08830B9F0843094
:1057D000D1F4809180008F7D03C0809180008F770D
:1057E00080938000089584B58F7702C084B58F7D43
:1057F00084BD08958091B0008F7703C08091B00080
:105800008F7D8093B0000895CF93DF9390E0FC01EB
:10581000E854F94F2491FC01E453F94F8491882313
:1058200049F190E0880F991FFC01E651F94FA591CD
:10583000B4918052994FFC01C591D4919FB76111E9
:1058400008C0F8948C91209582238C9388818223C0
:105850000AC0623051F4F8948C91322F3095832332
:105860008C938881822B888304C0F8948C91822B3E
:105870008C939FBFDF91CF9108950F931F93CF9388
:10588000DF931F92CDB7DEB7282F30E0F901EC553A
:10589000F94F8491F901E854F94F1491F901E45357
:1058A000F94F04910023C9F0882321F069830E94F5
:1058B000DB2B6981E02FF0E0EE0FFF1FE052F94F84
:1058C000A591B4919FB7F8948C91611103C0109584
:1058D000812301C0812B8C939FBF0F90DF91CF91CB
:1058E0001F910F910895FC01818D228D90E0805CC5
:1058F0009F4F821B91098F7399270895FC01918D09
:10590000828D981731F0828DE80FF11D858D90E022
:1059100008958FEF9FEF0895FC01918D828D981768
:1059200061F0828DDF01A80FB11D5D968C91928D83
:105930009F5F9F73928F90E008958FEF9FEF089580
:1059400080E19EE2892B49F080E090E0892B29F0EC
:105950000E94102E81110C9400000895FC01848D8A
:10596000DF01A80FB11DA35ABF4F2C91848D90E089
:1059700001968F739927848FA689B7892C93A08964
:10598000B1898C9180648C93938D848D981306C01B
:105990000288F389E02D80818F7D80830895CF93E5
:1059A000DF93EC01888D8823C9F0EA89FB89808127
:1059B00085FD05C0A889B9898C9186FD0FC00FB6F9
:1059C00007FCF5CF808185FFF2CFA889B9898C913A
:1059D00085FFEDCFCE010E94AE2CE7CFDF91CF91B6
:1059E0000895CF92DF92FF920F931F93CF93DF938F
:1059F0001F92CDB7DEB76C01DC015B969C915B9783
:105A00005C968C915C97981307C05096ED91FC9131
:105A10005197808185FD32C0F601038D10E00F5F44
:105A20001F4F0F731127F02EF601848DF81211C04D
:105A30000FB607FCF9CFD6015096ED91FC91519726
:105A4000808185FFF1CFC60169830E94AE2C6981F8
:105A5000EBCF838DE80FF11DE35AFF4F6083D60132
:105A60005B960C935B975296ED91FC9153978081D6
:105A70008062808381E058968C930DC0D601569643
:105A8000ED91FC91579760835096ED91FC91519761
:105A900080818064808381E090E00F90DF91CF91DE
:105AA0001F910F91FF90DF90CF900895BF92CF92FA
:105AB000DF92EF92FF92CF93DF93EC016A017B01BB
:105AC000B22EE889F98982E08083411581EE58077A
:105AD00061057105A1F060E079E08DE390E0A70138
