:100000000C947B030C940E090C94A3030C94A3038F
:100010000C9475080C94A3030C94A3030C94A303F1
:100020000C94A3030C94A3030C94A3030C94A303B8
:100030000C94A3030C94A3030C94A3030C94A303A8
:100040000C94872B0C94A3030C94602E0C94922E8A
:100050000C94A3030C94A3030C94A3030C94A30388
:100060000C94A3030C94A303902096209C20A22020
:10007000A820AE20B420BA20C020E120E920F12041
:10008000F920012109211121C721CF21D721DF2109
:10009000E721EF21F721FF2152225A2262226A2210
:1000A00072227A228222AF26B526BB26C12661277C
:1000B000C72661276127CD266127D826E326EE26AD
:1000C000612761276127F926612761270E272327EA
:1000D00038276127612761276127612761274D271D
:1000E00005A84CCDB2D44EB93836A9020C50B991FE
:1000F0008688083CA6AAAA2ABE000000803F870482
:100100008B045F040804D70373032503E5029902F7
:1001100043020802B801B001A1019801FA01ED0102
:10012000E701E101D801D301C7013D022F022102FD
:1001300019020F029102870278026F0264025C02C8
:1001400055024C02D802CC02B902AD02A10218033A
:100150000F036A04ED020203F50260035303420336
:10016000300353032A036A04CF03C70395038A03AA
:10017000BE03BA03AD039F037B030304FD03F9032E
:10018000F503F103EB03E703E103560449043C04E0
:100190002F0425041C0413044C4F4F5054494D4563
:1001A0000050494420434F4E54524F4C4C4552004E
:1001B00050524F46494C4500414456414E4345201C
:1001C00054554E494E47005445585420414C4152D5
:1001D0004D5300414D5053004D414820583130306F
:1001E0000054494D455200535045454400414C543C
:1001F0004954554445205831300044495354414EE8
:100200004345205831303000414C41524D53004F4E
:100210005344205458204348004D41472043414C0B
:1002200000444542554700312E31560035560056A0
:100230002052454600494D50004D455400554E4909
:10024000545300414456414E434544004D415020D3
:100250004D4F44450047494D42414C0053454E5394
:100260004F52530047505320434F4F524453005472
:1002700048524F54544C45005343524F4C4C494EF6
:100280004720424152530053494445204241525372
:1002900000484F52495A4F4E00444953504C41591F
:1002A0000041444A555354205A45524F0041444A54
:1002B00055535420414D50530055534520564952F3
:1002C0005455414C2053454E534F520044495350CE
:1002D0004C4159204D414800444953504C4159200C
:1002E000414D50530043555252454E5400555345CD
:1002F0002050574D005345542052535349204D49E7
:100300004E005345542052535349204D41580053F9
:100310004554205253534900444953504C415920AD
:100320005253534900525353490043454C4C5300D8
:10033000444953504C41592056494420564F4C543F
:1003400053004D41494E20564F4C545320414C418F
:10035000524D0041444A55535420564F4C5453007B
:10036000444953504C4159204D41494E20564F4C21
:10037000545300564F4C544147450054504120427D
:100380005245414B504F494E540050495443482028
:100390005241544500524F4C4C2052415445005458
:1003A00048524F54544C45204558504F00544852E1
:1003B0004F54544C45204D4944005450410059413C
:1003C000572052415445005243204558504F005247
:1003D0004320524154450052432054554E494E4704
:1003E000005A5F56454C004D4147004C4556454C20
:1003F0000047505300414C54005941570050495454
:10040000434800524F4C4C0050494420434F4E4605
:100410004947004D415820414D5053004D4148201F
:1004200055534544004D4158205350454544004DD7
:10043000415820414C544954554445004D415820A1
:1004400044495354414E434500544F54204449536A
:1004500054414E434500464C592054494D450053A4
:10046000544154495354494353005553452046433E
:10047000003C504147453E00534156452B455849A5
:10048000540045584954004F4646004F4E00C204A0
:10049000B904A70496044E4F542044455445435490
:1004A00045442D50414C004E4F5420444554454343
:1004B0005445442D4E545343004155544F2D504103
:1004C0004C004155544F2D4E545343001505DC0448
:1004D0000405F504E504DC04E104DD040053493AB5
:1004E0000049443A00202020202B50495443482002
:1004F00046554C4C00202020202B59415720524972
:10050000474854004D454E553A54485254204D49A1
:1005100044444C45004D574F5344202D20312E3636
:100520002E352E58008A056805610582057A057109
:10053000053B058A0558054E0545054C4F57205685
:100540004F4C545300204D495353494F4E00415591
:10055000544F20484F4C44004155544F205254486A
:10056000002041524D45440044495341524D4544B9
:10057000004C4F57205341545300204E4F204750BA
:1005800053004E4F204441544100001D1A1D1C1DB4
:10059000191D1C1D1B1D1C1D181D1C1D1A1D1C1D9D
:1005A000191D1C1D1B1D20007BC12A00210090006D
:1005B00054002400720027003500CB0060017EC18A
:1005C0007EC137C110011D0102000F004C01F20075
:1005D0006BC12FC175017F01C200BB00BB000300CE
:1005E00007007A00550106015C003400C500640074
:1005F0005701BA001801DCC020C034C036C0B7C0F3
:1006000090C054C024C072C028C0CBC0CAC060C152
:100610007EC17EC137C110011D0102C00FC04DC196
:10062000F3C06BC12FC171C178C1C2C0BBC0BBC018
:10063000030007007AC055C106C15CC03400C30086
:1006400064C05301BA0018C1DCC00000000096006D
:1006500000000004F40158020C00003C00000001FE
:100660008A04C800000000000100C80032640101D3
:100670000100000001000000010100000100000174
:10068000000000000001010101010001010004005F
:100690000000050001006464641E4D574F53440080
:1006A00020202020000000080002010000030407B1
:1006B000000000000000000001020408102040803B
:1006C000010204081020010204081020040404049C
:1006D00004040404020202020202030303030303EC
:1006E00000000000250028002B000000000024006E
:1006F00027002A00C22E11241FBECFEFD8E0DEBF94
:10070000CDBF11E0A0E0B1E0E4E7F6E602C005905D
:100710000D92A037B107D9F727E0A0E7B1E001C0FB
:100720001D92AC31B207E1F716E0C6EFD6E004C087
:100730002297FE010E94AF32C43FD107C9F70E9441
:10074000062F0C9438330C940000DC01ED91FC91E1
:100750000190F081E02D099460916204709163042E
:100760006115710581F420E030E044EB53E46091C1
:1007700048047091490480914A0490914B040E946E
:10078000F12F0E9459302091A30584E6289F900103
:10079000112481E0261737070CF080E0089580913E
:1007A000850481110EC08091420681110AC080919A
:1007B0004106811106C080E88093080681E080939D
:1007C0004106089580914106882329F080E090E158
:1007D000A0E0B0E05AC080914206882329F08FE95A
:1007E00096E0ACE0B0E051C08AE090E0A0E0B0E07C
:1007F0008093300290933102A0933202B09333027F
:1008000020918E0421FF0CC08AE190E0A0E0B0E0CE
:100810008093300290933102A0933202B09333025E
:1008200080915B06813089F0809130029091310295
:10083000A0913202B0913302816080933002909394
:100840003102A0933202B093330223FF11C0809192
:10085000300290913102A0913202B0913302806A4D
:100860008093300290933102A0933202B09333020E
:100870008091DB05811111C080913002909131028D
:10088000A0913202B091330298608093300290932D
:100890003102A0933202B093330280919A05811104
:1008A00004C080919405882389F080913002909152
:1008B0003102A0913202B0913302916080933002F4
:1008C00090933102A0933202B093330280912C02B4
:1008D00090912D02A0912E02B0912F0240913002F2
:1008E000509131026091320270913302842395233A
:1008F000A623B72380932C0290932D02A0932E025F
:10090000B0932F02089580917D048823A1F18091F6
:100910008504882381F160916B0470916C046115EA
:10092000710549F12091AC0580E090E0222339F077
:100930000E948A3021EB32E047E55BE306C00E946B
:100940008A302FE632E143E85AE30E9479319B0175
:10095000AC01609180017091810180918201909140
:1009600083010E94862F60938001709381018093A0
:100970008201909383016091800170918101809147
:100980008201909183010E945E3060932E047093E7
:100990002F0480933004909331040895EF92FF92D6
:1009A0000F931F93CF93DF930FE815E0C0E0D0E0E3
:1009B000F80141918F01BE0185E796E00E94832BEB
:1009C0002196CC34D105A1F701E815E0CCE4D0E0C4
:1009D000F8014081BE0185E796E00E94832BF80173
:1009E00041810E5F1F4FBE016F5F7F4F85E796E02D
:1009F0000E94832B2296CA35D10551F74CE060E066
:100A000070E085E796E0DF91CF911F910F91FF9005
:100A1000EF900C94832B0F931F93CF93DF93009150
:100A2000440682E5089F80011124CFE2D5E0065AF2
:100A30001F4FB80185E796E00E94802B90E09983D4
:100A40008883B8016F5F7F4F85E796E00E94802B17
:100A500090E0982F882728813981820F931F9983EE
:100A600088832091AD05222381F09C0131702739C4
:100A7000310558F0AC01425E5F4F59834883213FF6
:100A8000310518F0CC96998388830E5F1F4F22960C
:100A900085E0C138D80769F6DF91CF911F910F919A
:100AA00008950F931F93CF93DF930FE815E0C0E0F5
:100AB000D0E0BE0185E796E00E94802BF80181938B
:100AC0008F012196CC34D105A1F701E815E0CCE4E3
:100AD000D0E0BE0185E796E00E94802B90E0F8010F
:100AE00091838083BE016F5F7F4F85E796E00E9410
:100AF000802B90E0982F8827F80120813181280FE2
:100B0000391F219331938F012296CA35D10509F7F8
:100B1000DF91CF911F910F910C940B05EF92FF92F3
:100B20000F931F93CF93DF9360E070E085E796E02B
:100B30000E94802B8C3009F46CC0C0E0D0E0FE0134
:100B4000E85AF94F4491BE0185E796E00E94832B55
:100B50002196CC34D10599F7CCE4D0E0FE01E250E7
:100B6000FA4F05911491402FBE0185E796E00E944F
:100B7000832BBE016F5F7F4F412F85E796E00E9478
:100B8000832B2296CA35D10549F7CAE5D0E0CE01BC
:100B900082569A4F7C01FC0105911491402FBE01B1
:100BA00085E796E00E94832BBE016F5F7F4F412F48
:100BB00085E796E00E94832BFE01E45BFA4F0591E6
:100BC0001491BE016E5A7F4F402F85E796E00E9438
:100BD000832BBE016D5A7F4F412F85E796E00E941F
:100BE000832BF70105911491BE016C557F4F402F67
:100BF00085E796E00E94832BBE016B557F4F412F06
:100C000085E796E00E94832B2296CE3FD10509F01E
:100C1000BECFDF91CF911F910F91FF90EF9008957C
:100C20004F925F926F927F92AF92BF92CF92DF927C
:100C3000EF92FF920F931F93CF93DF9345E0E42E43
:100C400041E0F42E00EA14E0C0E0D0E05AE0D52EF6
:100C5000D7018D917D010E94662C20917F01C111E9
:100C600008C030919A05332339F18091880490E0CF
:100C700023C0C43009F5309195053323A9F0809144
:100C800042049091430495958795009769F4DC9E02
:100C9000F001DD9EF00D1124E20FF11DEE0FFF1F9C
:100CA000E057FB4F8081918130919405332321F0EF
:100CB0008091600490916104DC9EF001DD9EF00D56
:100CC0001124E20FF11DEE0FFF1FE057FB4FD8017B
:100CD0002D913C91119740815181241B350B119628
:100CE0003C932E9320813181280F391F369527950B
:100CF000318320838D919C911197820F931F8D9347
:100D00009C9321960C5E1F4FC530D10509F0A0CFF2
:100D100080919A056091A0047091A104C091B405DE
:100D2000811134C080E090E0D0919905C11115C0C7
:100D30000E948A306B017C016D2F70E080E090E0B2
:100D40000E948C309B01AC01C701B6010E94793131
:100D500027E137EB41ED58E314C00E948A306B0164
:100D60007C016D2F70E080E090E00E948C309B0150
:100D7000AC01C701B6010E9479312FE632E143E0B0
:100D80005AE30E9479310E945E3005C0E3E0759518
:100D90006795EA95E1F77093410460934004809170
:100DA000910580933C046091B4047091B50480E097
:100DB00090E0D091A105C11115C00E948A306B014D
:100DC0007C016D2F70E080E090E00E948C309B01F0
:100DD000AC01C701B6010E94793127E137EB41ED43
:100DE00058E314C00E948A306B017C016D2F70E0C3
:100DF00080E090E00E948C309B01AC01C701B601FD
:100E00000E9479312FE632E143E05AE30E947931C2
:100E10000E945E3070933F0460933E0480919C0575
:100E20008111CBC080919E05C0918305D09184052E
:100E3000009185051091860581114EC04090C8042F
:100E40005090C90463E0559447946A95E1F766248D
:100E500057FC6094762CC301B2010E948C306093E1
:100E60004C0470934D0480934E0490934F049E0164
:100E700040E050E0C8011F921F929F930F93A12C56
:100E8000B12C6501E12C14E0F12E00E010E0C3016B
:100E9000B2010E943D2F0E948C306B017C010F90AB
:100EA0000F900F900F9020E030E0A9010E94EA2FF0
:100EB00087FD09C0C0924C04D0924D04E0924E04CC
:100EC000F0924F0495C010924C0410924D04109271
:100ED0004E0410924F048CC080911A0190911B0116
:100EE00060910C0170910D018617970740F0609199
:100EF0000A0170910B018617970708F4BC0180E086
:100F000090E0685E734081099109623FB3E07B071E
:100F10008105910548F42AE030E040E050E00E946D
:100F20006C3269017A0105C054E6C52ED12CE12C42
:100F3000F12CC701B6010E948A302B013C01A701A8
:100F40009601C701B6010E9426320E948A302AE02B
:100F500037ED43EA5CE30E9479319B01AC01C301A8
:100F6000B2010E94862F6B017C01B80180E090E005
:100F70000E948A309B01AC01C701B6010E94793101
:100F80002AE037ED43E25CE30E9479316B017C019A
:100F900080918504BE01882359F080E090E00E9492
:100FA0008A309B01AC01C701B6010E94862F18C090
:100FB00080E090E00E948A3013C0809146049091B6
:100FC000470497FF02C0059701C005966AE070E0EC
:100FD0000E945832882777FD8095982F0E948C3088
:100FE00060934C0470934D0480934E0490934F048F
:100FF00080919305882309F44DC06091F0047091AD
:10100000F10443E0759567954A95E1F770934504BF
:101010006093440480914206882389F0809165069C
:101020008F3029F470938A056093890508C0813058
:1010300031F4709388056093870510926506E090FF
:101040008905F0908A0500E010E020918705309135
:10105000880540E050E0882777FD8095982F1F9203
:101060001F921F92E4E6EF93A12CB12C65010E9420
:101070003D2F0F900F900F900F906536710514F073
:1010800064E670E077FF02C060E070E070934504B2
:101090006093440480917F018F5F883018F48093BF
:1010A0007F0102C010927F01DF91CF911F910F91BC
:1010B000FF90EF90DF90CF90BF90AF907F906F90B8
:1010C0005F904F9008953B98F89480916C0083FD59
:1010D0000AC08091680082608093680080916C00F3
:1010E000886080936C00789408951F920F920FB6D9
:1010F0000F9211242F933F934F935F936F937F939E
:101100008F939F93AF93BF93CF93EF93FF93C6B10A
:1011100078940E94DD2B20917D0130917E01AB01FE
:10112000421B530B9A01293B3B4018F021E02093CE
:10113000040170937E0160937D01C3FD29C020915D
:101140007B0130917C01621B730BCB018F5E92405F
:10115000209104018B3D954098F4809149068823A5
:1011600059F0293068F4E22FF0E0EE0FFF1FEE5E39
:10117000FE4F7183608304C0709343046093420404
:101180002F5F20930401709348066093470604C0C4
:1011900070937C0160937B01FF91EF91CF91BF91A0
:1011A000AF919F918F917F916F915F914F913F91FF
:1011B0002F910F900FBE0F901F901895CF93DF9334
:1011C000C0E0D0E040E0BE0185E796E00E94832BBE
:1011D0002196C11582E0D807A9F7DF91CF91089534
:1011E0008EBD0DB407FEFDCF8EB50895685B7D4FB3
:1011F000FC012191CF01222321F0FB012193BF01AA
:10120000F7CF0895685B7D4FFC012491019622235E
:1012100021F0FB012193BF01F7CF08951F920F9298
:101220000FB60F921124109220020F900FBE0F9054
:101230001F901895CF93DF931F92CDB7DEB76983C8
:101240000E94F0086981862F0F90DF91CF910C9456
:10125000F0085E9A2A9864E670E080E090E00E94D0
:10126000002C2A9A80E58CBD81E08DBD8DB58EB5B0
:101270006AE070E080E090E00E94002C5E9864E6F6
:1012800070E080E090E00E94002C80EA0E94F0086C
:101290008FEF0E94F0088370813029F48093AD05B0
:1012A00080935E060CC0823029F41092AD05109236
:1012B0005E0605C09091AD059E5F90935E0680939B
:1012C00021028091AD05882341F080EE91E090935A
:1012D0002302809322026CE407C086E891E0909399
:1012E0002302809322026CE080E00E941A095E9A39
:1012F0009FB7F894E89A80916900826080936900B2
:101300009FBF0C940B051F93CF93DF93C82F5E985C
:101310008091AD05882311F060E401C060E080E0B9
:101320000E941A096C2F89E00E941A09CBE0D6E0CE
:1013300010E0612F8AE00E941A0969918BE00E94F7
:101340001A091F5F1633A9F760EA88E00E941A099C
:1013500080EA0E94F00885FDFBCF8091AD058823CF
:1013600011F06CE401C06CE080E00E941A095E9A02
:10137000DF91CF911F9108955E9880EA0E94F00856
:101380008FEF0E94F00883709091210298130C94C3
:10139000290980E80E94F0088FEF0E94F00883FF7F
:1013A000F6CF0895EF92FF920F931F93CF93DF93A1
:1013B000FB0197FF06C0919581959109FF24F39455
:1013C00001C0F12CDF01A40FB11D1C92BEE2EB2E77
:1013D000CAE0D0E0421306C04150DF01A40FB11DA6
:1013E000EC9220E03FEF340F8F01030F111DBE017F
:1013F0000E945832805DD8018C93CB01332379F061
:10140000222311F0432FE6CF0097E1F7FF2039F0B8
:101410003EEF340FDF01A30FB11D8DE28C9380E20C
:10142000332331F03150DF01A30FB11D8C93F8CF7E
:10143000CF01DF91CF911F910F91FF90EF90089511
:101440008F929F92AF92BF92DF92EF92FF920F9393
:101450001F93CF93DF93EA01F22E97FF08C0909578
:101460008095709561957F4F8F4F9F4F0E2D24E68D
:1014700030E040E050E00E948E32CA01B90126E01F
:101480002F0DFE01E20FF11D108215E0E12EEF0C91
:10149000FE01EE0DF11D00830AE0802E912CA12C9F
:1014A000B12C2EE2D22E2FEF2E0DEF1006C0E22E21
:1014B000FE01E20FF11DD082F6CFE22E8E01020F67
:1014C000111DA50194010E948E32605DF8016083B8
:1014D000B901CA01E11002C080E209C0F2E0FE15C4
:1014E00010F36115710581059105E9F6F5CFEE2040
:1014F00031F0EA94FE01EE0DF11D8083F8CFCE01AC
:10150000DF91CF911F910F91FF90EF90DF90BF90EF
:10151000AF909F908F9008953F924F925F926F92FD
:101520007F928F929F92AF92BF92CF92DF92EF9273
:10153000FF920F931F93CF93DF93EA01522E211155
:1015400003C0A5E06A2E02C0F8E06F2EFE01E60D92
:10155000F11D1082762C452C4AE0842E912CA12C72
:10156000B12C56E0C52ED12CE12CF12CEAE33E2E15
:101570002FEF270D8E01020F111D27FD1A95A501D2
:1015800094010E946C32605DF80160838EEF870DDC
:101590008E01080F111D87FD1A95CA01B901A70117
:1015A00096010E946C32605DF8016083B901CA0146
:1015B000FDEF7F0EFE01E70DF11D77FCFA953082FD
:1015C0004A942FEF4212D4CF252D220F250D621AF7
:1015D000EDEF6E0E3AE0C32ED12CE12CF12C6A9483
:1015E0008E01060D111D67FC1A95A70196010E9438
:1015F0006C32605DF8016083B901CA016115710543
:101600008105910511F480E203C06110E8CFFBCFA2
:10161000662041F06A94FE01E60DF11D67FCFA9523
:101620008083F6CFCE01DF91CF911F910F91FF9074
:10163000EF90DF90CF90BF90AF909F908F907F9072
:101640006F905F904F903F90089580E0E82FF0E01A
:10165000EC5CFD4F9081992311F08F5FF7CF0895D7
:10166000E82FF0E0EE0FFF1FE15DFA4F208131819E
:101670002227307C81E02115304C09F080E008956C
:10168000CF93DF9380916F06882309F49EC18091E8
:10169000E0059091E105A0E0B0E040918A0450910E
:1016A0008B0460918C0470918D0484239523A62370
:1016B000B723892B8A2B8B2BD1F08091BD058823F2
:1016C000B1F01092360286E18093340287E1809374
:1016D00035028EE10E94300B882349F060916B0542
:1016E00070916C05717084E392E00E94F60880911D
:1016F000C305882309F462C080918A0490918B0409
:10170000A0918C04B0918D044091DC0550E060E024
:1017100070E0482359236A237B23452B462B472B14
:1017200069F44091DD0550E060E070E04823592302
:101730006A237B23452B462B472B29F020EA209355
:101740003402E1E001C0E0E04091DE0550E060E0FD
:1017500070E0482359236A237B23452B462B472BD4
:1017600039F0CE2FD0E0CC5CDD4F22EA2883EF5F4A
:101770004091DF0550E060E070E0482359236A2380
:101780007B23452B462B472B39F0AE2FB0E0AC5CCA
:10179000BD4F81EA8C93EF5FF0E0EC5CFD4F10826F
:1017A00086E00E94300B882349F060913B057091E0
:1017B0003C05717084E392E00E94F60880918A04EF
:1017C00090918B04A0918C04B0918D044091E6051A
:1017D0005091E70560E070E0482359236A237B239A
:1017E000452B462B472B39F0109236028AEA80931C
:1017F00034028BEA58C04091E2055091E30560E065
:1018000070E0482359236A237B23452B462B472B23
:1018100049F08DE9809334028EE98093350210926D
:10182000360243C04091E4055091E50560E070E068
:10183000482359236A237B23452B462B472B39F01A
:10184000109236028DEC809334028EEC2CC04091C5
:10185000DC0550E060E070E0482359236A237B23D5
:10186000452B462B472B39F0109236028CEA809399
:1018700034028DEA18C04091DD0550E060E070E070
:10188000482359236A237B2310923602452B462B8B
:10189000472B29F084EC8093340285EC04C08EEA57
:1018A000809334028FEA809335028091B6058823B5
:1018B000C9F181E20E94300B8823A1F1609171058A
:1018C00070917205717084E392E00E94F608809135
:1018D000E8059091E905A091EA05B091EB054091EA
:1018E0008A0450918B0460918C0470918D04842340
:1018F0009523A623B723892B8A2B8B2B99F08AEE6D
:10190000809334028BEE8093350210923602609100
:1019100071057091720571706E5F7F4F84E392E084
:101920000E94F6088091610681114FC084E20E94F6
:10193000300B882309F449C040918A0450918B04EC
:1019400060918C0470918D048091E2059091E30583
:10195000A0E0B0E084239523A623B723892B8A2B0C
:101960008B2B01F58091E4059091E505A0E0B0E0B6
:1019700084239523A623B723892B8A2B8B2BA1F4B1
:101980008091F8059091F905A091FA05B091FB05B9
:1019900084239523A623B723892B8A2B8B2BA9F08D
:1019A000E3E003C0E1E001C0E2E0F0E0EE0FFF1F82
:1019B000ED5CFA4F8591949160917705709178056F
:1019C0007170DF91CF910C940209DF91CF9108954E
:1019D000E1EDF5E0A4E3B2E021912D9325E0EB3DAC
:1019E000F207D1F710923E02BC0184E392E00C941E
:1019F000F6088F929F92AF92BF92CF92DF92EF92B2
:101A0000FF920F931F93CF93DF937C01EB018091A3
:101A1000BC05811105C08091C405882309F4C8C0A4
:101A200080918504811104C010926C0410926B04A3
:101A300020916B0430916C0480916704909168044C
:101A4000AC01415F5F4F42175307F0F40E94D12B66
:101A500060935A0470935B0480935C0490935D04DC
:101A600082E080935F0480916B0490916C0490936A
:101A700068048093670480910F01815080930F0167
:101A8000803130F585E122C0215F3F4F28173907AB
:101A9000F8F40E94D12B60935A0470935B048093F6
:101AA0005C0490935D0481E080935F0480916B04FB
:101AB00090916C04909368048093670480910F0167
:101AC0008F5F80930F01863118F080E180930F01C2
:101AD0008091FC049091FD04A091FE04B091FF045C
:101AE0004091F8045091F9046091FA047091FB045C
:101AF0008A019B010C5E1F4F2F4F3F4F081719079C
:101B00002A073B0734F50E94D12B6093560470934B
:101B10005704809358049093590482E080935E04A4
:101B20008091FC049091FD04A091FE04B091FF040B
:101B30008093F8049093F904A093FA04B093FB0403
:101B400080910E01815080930E01803188F585E1EE
:101B50002DC04496A11DB11D84179507A607B70790
:101B60003CF50E94D12B60935604709357048093E8
:101B700058049093590481E080935E048091FC04A2
:101B80009091FD04A091FE04B091FF048093F804AD
:101B90009093F904A093FA04B093FB0480910E0192
:101BA0008F5F80930E01863118F080E180930E01E3
:101BB0008091BC05811105C083E180930F01809362
:101BC0000E0100916105109162051170C93CD105AB
:101BD0003CF4C8332FEFD2072CF4C8E3DFEF02C088
:101BE000C8ECD0E071E9E71671E0F70654F480E73D
:101BF000E8168EEFF8064CF4B0E7EB2EBEEFFB2EA6
:101C000004C080E9E82EFF24F394D090AF0589E169
:101C10000E94300B8D2109F465C0CE010A9697FD14
:101C2000079663E0959587956A95E1F7EE27FF277C
:101C3000E81BF90BB090C10540E0C4E0D0E079E0CA
:101C4000C72ED12CAEE1AA2E443009F445E0242F52
:101C500030E0BE01621B730BE69EC001E79E900D53
:101C6000F69E900D112497FDCF9656E09595879599
:101C70005A95E1F78E0F9F1F899682359105F8F4EA
:101C8000200F311FB6010E945832A69ED001A79E98
:101C9000B00D11242A0F3B1F8058285B3D4FD901FE
:101CA000AC57B1098C93BB2051F09EEF940F953047
:101CB00030F4AA55B1098C93AC54BF4F8C934F5F4D
:101CC000493010F282E20E94300B81110BC0F80102
:101CD000E85BFD4FDF01119786E28C938CEB8183EB
:101CE0008EE780838091B005882309F49EC08AE145
:101CF0000E94300B882309F498C0809169058F7089
:101D0000909167059F70D92E492F419560910F01E1
:101D100050910E01E82EFF24E7FCF09498012E1953
:101D20003F09E701C00FD11F7EE14702C001112426
:101D3000885B9D4FFC01E20FF31F6083FC01EC0FF9
:101D4000FD1F50834F5FD4167CF7F801EE19FF0991
:101D5000E75BFD4F83E08083F801EE0DFF1DE95B3B
:101D6000FD4F82E080838091C405882309F45DC023
:101D70008BE10E94300B882309F457C00E94D12BBD
:101D800080905A0490905B04A0905C04B0905D0435
:101D900028EE820E23E0921EA11CB11C6815790565
:101DA0008A059B05D8F480915F04F801823059F4CC
:101DB0008EE1D89EE019F1091124EE19FF09E85BC4
:101DC000FD4F89EC0AC02EE1D29EE00DF11D1124D9
:101DD000EE19FF09E85BFD4F8FEC80830E94D12B49
:101DE00000915604109157042091580430915904E1
:101DF00008511C4F2F4F3F4F601771078207930701
:101E0000A0F480915E04C85BDD4F823039F47EE13E
:101E1000D79EC019D109112489EC06C08EE1D89E45
:101E2000C00DD11D11248FEC8883DF91CF911F91BC
:101E30000F91FF90EF90DF90CF90BF90AF909F9069
:101E40008F900895AF92BF92CF92DF92EF92FF9260
:101E50000F931F938091970580933D04809198057F
:101E600080934A069091B1059923E1F120911101E7
:101E7000829F9001112440911001849FA0011124A0
:101E800080914004909141048217930710F4622FCF
:101E900009C07A0162E0E61AF1088E159F0508F480
:101EA0007C016E2D7A0181E0E81AF10800E010E073
:101EB000442737FD4095542F70E080E090E01F925A
:101EC0001F921F92E7E0EF93A12CB12C65010E94B5
:101ED0003D2F86E9861B809334020F900F900F9060
:101EE0000F9003C087E98093340200914004109161
:101EF0004104E0903D04F12C0E151F0520F4809163
:101F00006106811127C085E10E94300B811103C059
:101F1000E016F106F8F023E044E065E372E0C80162
:101F20000E94D20989EA8093390210923A026091A4
:101F3000590570915A0571706150710984E392E0FE
:101F40001F910F91FF90EF90DF90CF90BF90AF90D7
:101F50000C94F6081F910F91FF90EF90DF90CF90B7
:101F6000BF90AF900895CF93DF93C0913E04D0917E
:101F70003F0480913C0490E0C817D90720F4809179
:101F80006106811121C086E10E94300B8823E1F0B7
:101F90008FEB8093340223E044E065E372E0CE01EE
:101FA0000E94D20989EA8093390210923A02609124
:101FB0005B0570915C0571706150710984E392E07A
:101FC000DF91CF910C94F608DF91CF910895AF92F5
:101FD000BF92CF92DF92EF92FF920F931F938BE00D
:101FE0000E94300B882309F483C080E2809335027D
:101FF00060911A0170911B0180910A0190910B016F
:102000008617970720F470930B0160930A01809163
:102010000C0190910D016817790720F470930D0160
:1020200060930C0180910A0190910B0183309840DC
:1020300030F082E098E090930B0180930A01809148
:102040000C0190910D01863B934030F486EB93E0B8
:1020500090930D0180930C018091850481110BC038
:1020600080E2809336029DE290933702909338028B
:102070008093390227C0E0900A01F0900B0100E044
:1020800010E020910C0130910D0140E050E080E023
:1020900090E01F921F921F92E4E6EF93A12CB12CC7
:1020A00065010E943D2FDC01CB0120E043E066E3A7
:1020B00072E00E94D20985E2809339020F900F905E
:1020C0000F900F9088EC8093340210923A02609146
:1020D000450570914605717084E392E01F910F9160
:1020E000FF90EF90DF90CF90BF90AF900C94F608E8
:1020F0001F910F91FF90EF90DF90CF90BF90AF9026
:1021000008958091C205882309F44EC08091490545
:1021100090914A058115924008F446C0809185044B
:102120008823F1F02091520430915304C9016CE3EB
:1021300070E00E9444328091D00590E068177907E2
:1021400020F08091610681112FC020318EE0380788
:1021500028F48CE980933402B90116C081E709C0E4
:10216000609154047091550460312EE0720720F4A0
:102170008BE98093340208C080E780933402CB015E
:102180006CE370E00E94443280E090E020E045E3A0
:1021900052E00E948C0A6091490570914A05717065
:1021A00084E392E00C94F6080895CF92DF92EF92C8
:1021B000FF92C0904C04D0904D04E0904E04F090FB
:1021C0004F04609132047091330480E090E00E94EB
:1021D0008A309B01AC01C701B6010E947531181607
:1021E00044F4C701B6010E945E30709333046093DB
:1021F000320487E10E94300B8823F1F0C701B60159
:102200000E945930DC01CB0124E045E064E372E038
:102210000E94D2098AE98093390210923A026091B1
:102220005D0570915E05717084E392E0FF90EF9020
:10223000DF90CF900C94F608FF90EF90DF90CF9056
:102240000895CF92DF92EF92FF920F931F93CF9357
:10225000DF9385E20E94300B882309F46EC0009161
:10226000790510917A058091AC0560916B047091AD
:102270006C04811109C080E090E00E948A302CEB50
:1022800034E743E15DE308C080E090E00E948A30DB
:102290002DED3FE347EB5CE30E9479310E945E3015
:1022A000EB01209741F1609140047091410480E07E
:1022B00090E00E948A3020914C0430914D0440916E
:1022C0004E0450914F040E9479316B017C018AE0E9
:1022D0008C9FB0018D9F700D112480E090E00E94D2
:1022E0008A309B01AC01C701B6010E94F12F0E9408
:1022F0005E30EB0102C0C7EED3E023E044E065E3CB
:1023000072E0CE010E94D20980E2809334028AE218
:102310008093390210923A02C73ED34070F4B8015C
:10232000717084E392E0DF91CF911F910F91FF9044
:10233000EF90DF90CF900C94F608DF91CF911F9132
:102340000F91FF90EF90DF90CF90089588E10E9469
:10235000300B882321F184EA8093340220E030E0BE
:1023600044EB53E4609148047091490480914A041D
:1023700090914B040E94F12F0E945930DC01CB0157
:102380004AE050E065E372E00E94E23260915F054E
:1023900070916005717084E392E00C94F6080895E2
:1023A00083E10E94300B882331F18AEB8093340261
:1023B0004AE050E065E372E0809144049091450466
:1023C0000E94E2320E94250BA82FB0E0AC5CBD4F0A
:1023D00095E29C938F5FE82FF0E0EC5CFD4F10825C
:1023E000609155057091560571706150710984E3D3
:1023F00092E00C94F608089587E00E94300B882341
:1024000081F18091AA05882361F180915004909117
:1024100051042091AB05222381F097FF02C0885917
:102420009E4F20E043E064E372E00E94D2098DEB0E
:1024300080933702109238020BC020E044E064E33E
:1024400072E00E94D2098DEB80933802109239021B
:1024500060913D0570913E05717084E392E00C94AB
:10246000F608089588E00E94300B8823F9F08091E7
:10247000C0058823D9F08091500490915104880FB1
:10248000991F880F991F83509D4F6AE570E00E9445
:10249000583264577A4F80913F0590914005917072
:1024A00049E050E0885B9D4F0C94D93208950F931A
:1024B0001F93CF93DF930CEC14E0C0E4D0E0F8015D
:1024C00085919491BE010E9402090E5F1F4F6E9686
:1024D000C03381E0D80799F788EF90E00E94E80CBC
:1024E000E0915E06F0E0EE0FFF1FE257FB4F859193
:1024F000949166E171E0DF91CF911F910F910C945F
:102500000209CF93C0916404C53020F48091610624
:1025100081111DC080E00E94300B8823C1F08EE144
:10252000809334028FE1809335024AE050E066E305
:1025300072E08C2F90E00E94E23260912F05709142
:102540003005717084E392E0CF910C94F608CF913E
:1025500008950F931F93CF93DF9380917D04882379
:1025600009F463C080918504811104C010926C0449
:1025700010926B04C091AC0560916B0470916C0477
:1025800080E090E0C11107C00E948A302CEB34E754
:1025900043E15DE306C00E948A302DED3FE347EB47
:1025A0005CE30E9479310E945E308B0180913A0495
:1025B00090913B049C012C5E3F4F2017310728F47B
:1025C00030933B0420933A0407C08017910720F40E
:1025D00010933B0400933A0483E00E94300B88235D
:1025E00021F18091CF0590E08017910720F4809130
:1025F000610681111AC0D0E0C35ADE4F88818093F2
:1026000034024AE050E065E372E0C8010E94E23221
:102610006091350570913605717084E392E0DF9129
:10262000CF911F910F910C94F608DF91CF911F91DC
:102630000F910895AF92BF92CF92DF92EF92FF92E7
:102640000F931F93CF93DF938AE00E94300B882370
:1026500009F44CC08091BE05882309F447C0C0919D
:102660004305D0914405D170C85BDD4FFE017E97D4
:102670008FE7808388838E8F809186049091870472
:102680008937910534F488382FEF920724F0682FAA
:1026900003C068E701C068E8772767FD7095872F5A
:1026A000972F1F921F921F9221E12F93A12CB12CE3
:1026B000650118E8E12EFF24FA940FEF1FEF28E7D9
:1026C00030E040E050E00E943D2F862F66E00E94FF
:1026D000363281502EE18202C00DD11D11248FE8C7
:1026E000891B88830F900F900F900F90DF91CF91EF
:1026F0001F910F91FF90EF90DF90CF90BF90AF9020
:10270000089580917D04882309F184E00E94300BB4
:102710008823E1F08091A9058823C1F020E043E0FF
:1027200064E372E080916504909166040E94D2098E
:102730008DEB8093370210923802609137057091CB
:102740003805717084E392E00C94F6080895809146
:102750007D048823F1F181E00E94300B8823C9F1C8
:1027600080917E0490917F04A0918004B0918104B7
:102770000397A105B10520F480916106811129C05C
:102780002091310530913205317080915004909143
:102790005104845E9D4F4091650450916604841BF2
:1027A000950B880F991F880F991F8D966AE570E029
:1027B0000E945832CB0160E170E00E945832805A8A
:1027C0008093340210923502B90184E392E00C94B4
:1027D000F6080895209137012A3059F48091360186
:1027E000813009F4BEC0823009F4BEC08AE791E0AE
:1027F000AEC02A3008F0ABC030913501313039F528
:10280000293049F480914B06883011F48AE001C0E8
:1028100088E0809337012091370120934B0630E008
:102820002E5F3F4F4EE1429FC001439F900D112408
:102830000A962091360130E02150310966E0629F0E
:10284000A001639F500D1124840F951F80C032306A
:10285000E1F1333071F430933601283019F48AE015
:102860008093370180913701893009F064C087E097
:102870004EC0343079F483E080933601273019F468
:102880008AE08093370180913701893009F053C085
:1028900086E03DC0353041F483E080933601293035
:1028A00011F5309337011FC0363099F4293049F4BF
:1028B00080914B06883011F48AE001C088E0809353
:1028C00037012091370120934B0683E08093360136
:1028D00034C0373069F483E080933601293019F42D
:1028E00085E08093370180913701863021F50EC055
:1028F000383081F483E080933601293019F487E081
:1029000080933701809137018830A9F48AE0809361
:10291000370111C03930D9F4293019F483E080939C
:10292000370180913701843019F48AE080933701B0
:1029300083E0809336012091370130E02E5F3F4FD6
:102940004EE1429FC001439F900D11244696209175
:102950006206222361F0FC01E85BFD4F23E0208347
:1029600008958AE691E0F3CF80E791E0F0CF0895F3
:10297000EF92FF920F931F93CF93DF93E8E4F2E07F
:102980008091220290912302885B9D4F20E2E817FC
:10299000F90711F02193FBCF61E270E08BE391E046
:1029A0000E94F60804E111E0CFE3D0E04AE050E0F5
:1029B00064E372E0F801819191918F010E94E2320B
:1029C000BE0184E392E00E94F6086E96CF32F1E0F9
:1029D000DF0761F766E370E08EE391E00E94F6089E
:1029E00000EA14E0C4E5D0E04AE050E064E372E0BD
:1029F000F801808191810E94E232BE0184E392E07D
:102A00000E94F6080C5E1F4F6E96CA3ED10561F714
:102A100068E270E083E491E00E94F60803E516E0C6
:102A2000C6E4D0E060E3F62E7AE3E72E20E047E04C
:102A300066E372E0F801819191918F010E94D209C1
:102A4000F0923402E0923502BE0184E392E00E94EB
:102A5000F608F3946E96F4E3FF12E8CF68E071E0B5
:102A600089E491E00E94F6084AE050E064E372E0F5
:102A700080914706909148060E94E23266E271E03A
:102A800084E392E00E94F6084AE050E064E372E0DA
:102A900080914506909146060E94E23264E471E01E
:102AA00084E392E00E94F6080E94220FDF91CF910A
:102AB0001F910F91FF90EF900C94A7132F923F92CC
:102AC0004F925F926F927F928F929F92AF92BF923E
:102AD000CF92DF92EF92FF920F931F93CF93DF93EA
:102AE000CDB7DEB762970FB6F894DEBF0FBECDBF8D
:102AF0008091B3058230A1F040F4813009F0EEC13D
:102B000001E010E01C830B8309C0833019F084308E
:102B100039F0E4C122E030E03C832B831F8206C001
:102B200082E090E09C838B8391E09F8380917D0481
:102B3000882309F4D3C182E20E94300B882309F470
:102B4000CDC11E821D82198A1A8A9F81AD819A0F7A
:102B50009A83892F90E0EB81FC818E179F070CF000
:102B6000BDC18091650490916604AA81A13069F489
:102B70002091820430918304821B930B845E9D4FCD
:102B800068E671E00E9444320CC088599E4F209143
:102B9000500430915104821B930B68E671E00E944F
:102BA00058329C016AE570E00E945832613071052C
:102BB000C1F03CF4672B29F5BFEFB98BE1E0EA8B5C
:102BC00020C062307105B9F063307105D1F488E638
:102BD00091E0821B930B9C019FEF998BAFEFAA8B27
:102BE00010C0E4EBF0E0E21BF30B9F01F1E0F98B86
:102BF00001E00A8B06C0245B310911E0198B4FEF0D
:102C00004A8BB901882777FD8095982F0E948C30D8
:102C10002BED3FE049E450E40E94793120E030E0C0
:102C200044E353E40E94F12F1B012C0160917E04C8
:102C300070917F0480918004909181040E948A3079
:102C40004B015C01C201B1010E94DC319B01AC016E
:102C5000C501B4010E9479310E945E306B017C0194
:102C6000C201B1010E94EE2F9B01AC01C501B4016C
:102C70000E9479310E945E308B019C011B01412C26
:102C8000512CB60180E090E0C016D10618F4420144
:102C9000310102C03B014C01F4E66F16710481045E
:102CA000910490F004EF601601E070068104910435
:102CB00080F014EC611619E071068104910470F043
:102CC000930144E249830EC0A1E2A98324E630E0E7
:102CD00009C0B2E2B98324EF31E004C0E3E2E98342
:102CE00024EC39E079010027F7FC0095102FE886E5
:102CF000F9860A871B871F921F921F9220E1F22EEE
:102D0000FF92A12CB12C6501E884F9840A851B850A
:102D100020E030E0A9010E943D2F6C877D878E87DF
:102D20009F871F921F921F920FE00F93E884F984F0
:102D30000A851B8520E030E0A901C201B1010E9493
:102D40003D2F0FB6F894DEBF0FBECDBF34E1631642
:102D5000710481049104D8F0AA894A2F552747FDB0
:102D60005095EC85FD854E9F90014F9F300D5E9FE5
:102D7000300D1124F9894F2F552747FD5095469F57
:102D8000F001479FF00D569FF00D112404C0E0E0C4
:102D9000F0E020E030E0C0907505D090760501E0CD
:102DA000D022790189010F5F1F4F37FD7801F5941B
:102DB000E794EC0CFD1CCF0163E070E00E945832F8
:102DC0004EE1469FC001479F900D1124E80EF91E69
:102DD0004A81413011F045E001C044E0C90137FFAC
:102DE00004C088279927821B930BA82FA178A7FFDF
:102DF00003C0A150AE6FAF5F5A2FCF01F7FF04C0E1
:102E0000882799278E1B9F0B63E00E9436328989A1
:102E1000813019F482E0891B982FBA89BF3F11F4E1
:102E200051E05A1B3296359718F491E0E9899E1BC0
:102E30000330110528F451E02F3F3F4F09F450E0D3
:102E40000A81002311F080ED01C086ED2091B305C9
:102E5000243031F0152F110F150F190F180F16C050
:102E60008091500490915104209182043091830408
:102E7000821B930B8A519D4F68E671E00E94443299
:102E80006DE270E00E94443212E7160F2981209310
:102E9000340210923502609173057091740571705F
:102EA00084E392E0488B0E94F6081093340210925B
:102EB0003502B70184E392E00E94F6084889409306
:102EC000340210923502B60184E392E00E94F608C3
:102ED0008D819E8101969E838D8337CE62960FB63B
:102EE000F894DEBF0FBECDBFDF91CF911F910F9140
:102EF000FF90EF90DF90CF90BF90AF909F908F901A
:102F00007F906F905F904F903F902F9008959C011D
:102F1000E62FF0E0E157FA4FE081F0E0EE0FFF1FFF
:102F2000E250FF4F85919491B9010C940209CF9220
:102F3000DF92EF92FF920F931F93CF93DF93CDB762
:102F4000DEB764970FB6F894DEBF0FBECDBFE09139
:102F50003501EE0FFF0BEE5FFE4F8591949163E21A
:102F600070E00E9402096BE671E082E894E00E9442
:102F700002098091840481110CC061E771E088E747
:102F800094E00E9402096BE771E081E794E00E94FF
:102F900002098091350181116CC080912E049091BD
:102FA0002F049C838B8380913404909135049E83FD
:102FB0008D83809138049091390498878F83809114
:102FC0003A0490913B049A87898720E030E044EBF3
:102FD00053E4609148047091490480914A049091AF
:102FE0004B040E94F12F0E9459307C876B8780919F
:102FF0003204909133046AE070E00E9444327E878C
:103000006D870AE8E02E01E0F02ECE0101966C01FA
:103010000DE510E0F70185919491B8010E94020935
:103020004AE050E064E372E0F601819191916F0112
:103030000E94E232B8016F5E7F4F0E94F608F2E014
:10304000EF0EF11C025E1F4F0F3281E0180711F7DF
:1030500060912C0470912D0480E090E021E044E325
:1030600052E00E948C0A6DE670E084E392E00E94D8
:10307000F60880913501813009F06DC01AE7E12E24
:1030800011E0F12E0DE510E0F70185919491B80162
:103090000E94020992E0E90EF11C025E1F4F0D34FE
:1030A000E1E01E0789F700E0053019F0073028F04D
:1030B00001C007E0D02E025001C0D02EFEE10F9FCC
:1030C00080011124ED2CF12CF701EB5DFA4F80818A
:1030D0004AE050E064E372E090E00E94E232B8011E
:1030E0006B597F4F0E94F608F701E55EFA4F808129
:1030F0004AE050E064E372E090E00E94E232B801FE
:1031000065597F4F0E94F608F701EF5EFA4F808104
:103110004AE050E064E372E090E00E94E232B801DD
:103120006F587F4F0E94F60801E00D0D0A3008F439
:10313000BBCF67E470E08DE491E00E94F6086DE497
:1031400070E08FE491E00E94F60863E570E081E5AD
:1031500091E00E94F608809135018230E9F180917A
:103160003501833009F0EDC00E94100687E9809395
:10317000340223E044E065E372E0809140049091E2
:1031800041040E94D20919EA1093390210923A02BE
:1031900064E370E084E392E00E94F6088FEB809392
:1031A000340223E044E065E372E080913E049091B4
:1031B0003F040E94D2091093390210923A026CE245
:1031C00070E084E392E00E94F608AAE5EA2EA1E00E
:1031D000FA2E0DE510E056C08091100590E09A831C
:1031E000898380910F0590E09C838B8380910E05ED
:1031F00090E09E838D8380910D0590E098878F836A
:1032000080910C0590E09A87898780910B0590E06A
:103210009C878B8780910A0590E09E878D8780919F
:10322000090590E0988B8F8780910705909108059C
:103230009A8B898BB8E6EB2EB1E0FB2ECE0101967E
:103240006C010DE510E0F70185919491B8010E94A1
:1032500002094AE050E064E372E0F6018191919145
:103260006F010E94E232B8016C5E7F4F0E94F60847
:10327000F2E0EF0EF11C025E1F4F0B3681E01807E3
:1032800011F76DCFF70185919491B8010E94020961
:1032900092E0E90EF11C025E1F4F0F32E1E01E07C3
:1032A00089F78091A0054AE050E064E372E090E085
:1032B0000E94E2326BEC70E00E94F60867E081E762
:1032C00090E00E948717809199054AE050E064E3FE
:1032D00072E090E00E94E2326FE870E00E94F6082F
:1032E000809197054AE050E064E372E090E00E942C
:1032F000E2326DEA70E00E94F60861E18BEC90E04A
:103300000E9487178091A1054AE050E064E372E0D3
:1033100090E00E94E23269EE70E00E94F60880912F
:1033200098054AE050E064E372E090E00E94E232E7
:1033300067E071E00E94F6086BE085E291E00E9490
:10334000871780913501843009F072C04AE050E05F
:1033500064E372E080914404909145040E94E2325B
:103360000E94250BA82FB0E0AC5CBD4F95E29C936A
:103370008F5FE82FF0E0EC5CFD4F108265E370E0BA
:1033800084E392E00E94F608FEE4EF2EF1E0FF2EC7
:103390000DE510E0F70185919491B8010E940209B2
:1033A000F2E0EF0EF11C025E1F4F013181E01807C1
:1033B00089F764E081E790E00E94871780916506B5
:1033C000882351F04AE050E064E372E090E00E940C
:1033D000E2326FE870E004C06FE870E083E591E0EE
:1033E0000E94F60865E08DEA90E00E94871766E08B
:1033F0008BEC90E00E9487174AE050E064E372E0B3
:103400008091890590918A050E94E23269EE70E010
:103410000E94F6084AE050E064E372E0809187057C
:10342000909188050E94E23267E071E00E94F60800
:1034300080913501853009F05CC060914C04709139
:103440004D0480914E0490914F040E945930DC014C
:10345000CB0123E044E064E372E00E94D2098AE9F0
:10346000809338021092390264E370E084E392E0C2
:103470000E94F608E4E4EE2EE1E0FE2E0DE510E0F9
:10348000F70185919491B8010E94020992E0E90E3A
:10349000F11C025E1F4F033F110591F76CE081E7BD
:1034A00090E00E9487176EE08FE890E00E948717F7
:1034B0006FE08DEA90E00E9487174AE050E064E3F5
:1034C00072E080918505909186050E94E2326BEC56
:1034D00070E00E94F6084AE050E064E372E08091F8
:1034E0008305909184050E94E23269EE70E00E94AB
:1034F000F60880913501863009F045C074E3E72E67
:1035000071E0F72E0DE510E0F70185919491B80177
:103510000E940209E2E0EE0EF11C025E1F4F0D3424
:10352000F1E01F0789F760E281E790E00E948717CA
:1035300061E28FE890E00E9487176DE28DEA90E0EB
:103540000E9487176FE18BEC90E00E94871767E17C
:1035500089EE90E00E94871764E387E091E00E9483
:1035600087176EE285E291E00E9487178091B3058C
:103570004AE050E064E372E090E00E94E23263E4EB
:1035800071E00E94F60880913501873009F054C03F
:103590006AE2E62E61E0F62E0DE510E0F701859176
:1035A0009491B8010E94020982E0E80EF11C025ECB
:1035B0001F4F033F110591F78091AC0561E770E063
:1035C000811103C089E392E002C085E392E00E948A
:1035D00002098091B4056FE870E0882319F08CE24D
:1035E00092E002C087E292E00E9402096CE28DEA5A
:1035F00090E00E94871780916606882351F04AE088
:1036000050E064E372E090E00E94E2326BEC70E024
:1036100004C06BEC70E083E591E00E94F6088091B5
:10362000C9054AE050E064E372E090E00E94E232B3
:1036300069EE70E00E94F60880913501883009F04B
:103640004FC08091CD0590E09A8389838091CE050B
:1036500090E09C838B838091CF0590E09E838D8347
:103660008091D00590E098878F838091A30590E0AA
:103670009A8789878091A40590E09C878B870DE5C8
:1036800010E0E12CF12CD12CF701E45EFE4F859186
:103690009491B8010E94020996E0D91699F04AE087
:1036A00050E064E372E0E1E0F0E0EC0FFD1FEE0DAE
:1036B000FF1D808191810E94E232B8016C5E7F4FD4
:1036C0000E94F608D394E2E0EE0EF11C025E1F4F5A
:1036D000F7E0DF12D9CF60E185E291E00E94871721
:1036E00080913501893039F0809135018A30D4F1EB
:1036F0001092350137C08091050590E09A83898347
:103700008091020590E09C838B83809100059091CD
:1037100001059E838D8356E1E52E51E0F52ECE0105
:1037200001966C010DE510E0F70185919491B801C7
:103730000E9402094AE050E064E372E0F6018191E0
:1037400091916F010E94E232B8016C5E7F4F0E943E
:10375000F608F2E0EF0EF11C025E1F4F073B110569
:1037600019F7C2CF64960FB6F894DEBF0FBECDBF77
:10377000DF91CF911F910F91FF90EF90DF90CF904D
:103780000C94EA130F931F93CF93DF938EE00E9464
:10379000300B882309F4B4C080919F05882309F475
:1037A000AFC080918504811109C080912804826096
:1037B000809328048EE18093390116C090913901DD
:1037C000992369F08091620681119AC08091280442
:1037D00084608093280491509093390105C08091B2
:1037E000280481608093280480913D0490E020911A
:1037F0004004309141048217930728F080912804F7
:1038000080648093280480918E0483FF1CC0809183
:103810006404853028F48091280480628093280411
:1038200080917006811105C0809128048061809389
:10383000280480916F06811106C0809128048F7C36
:1038400088608093280480912904811104C08091AC
:1038500028048093290480912904D82FD195D82356
:103860000E94D12B0091710610917206209173066F
:10387000309174060C501E4F2F4F3F4F06171707FD
:103880002807390798F490912904992329F08D2F5E
:1038900080958923809329040E94D12B609371061F
:1038A00070937206809373069093740680E090E0A4
:1038B0002D2F30E0E82FA901082E02C0559547951D
:1038C0000A94E2F740FFEC2F01968730910511F042
:1038D000CE2FF0CF80912804823090F0F0E0EE0FF0
:1038E000FF1FEB5DFA4F8591949160914B057091AC
:1038F0004C057170DF91CF911F910F910C940209CB
:10390000DF91CF911F910F9108951F93CF93DF9374
:103910001F92CDB7DEB7DC01CB01142F642F70E00E
:103920006C5C7D4F4AE050E029830E94E23229819D
:10393000113051F4E091AC05F0E0EB5AFE4FE20F8C
:10394000F11D8081809334020F90DF91CF911F9100
:103950000895CF92DF92EF92FF928091A80588237D
:1039600009F450C085E00E94300B882309F44AC056
:103970008091AC058823A9F0609171047091720464
:1039800080917304909174040E948C3021EA38EF86
:1039900041E550E40E9479310E9459306B017C016D
:1039A00008C0C0907104D0907204E0907304F0904D
:1039B0007404C701B6012AE030E040E050E00E9404
:1039C0008E328091CE0590E0A0E0B0E02817390754
:1039D0004A075B0724F080916106811113C020E043
:1039E00041E0C701B6010E94851C609139057091C4
:1039F0003A05717084E392E0FF90EF90DF90CF90F2
:103A00000C94F608FF90EF90DF90CF900895EF921E
:103A10000F93CF93DF9380917D04882309F46DC0C9
:103A20000E94A91C81E10E94300B882309F465C023
:103A300040918A0450918B0460918C0470918D04A4
:103A40008091E2059091E30521E030E041155105B8
:103A50006105710511F020E030E028233923232B84
:103A600009F04BC0A0E0B0E084239523A623B72340
:103A70002091A605822B892B8A2B8B2BF1F1C091EB
:103A80005105D0915205D1708AEC80933402609137
:103A9000790470917A0480917B0490917C0423E5F1
:103AA000E22E0EE424E045E352E00E94200ABE012B
:103AB00084E392E00E94F608C0915305D09154052A
:103AC000D1708BEC80933402609175047091760410
:103AD000809177049091780437E5E32E05E424E0A3
:103AE00045E352E00E94200ABE0184E392E0DF91A8
:103AF000CF910F91EF900C94F608DF91CF910F9139
:103B0000EF900895CF93DF938091AC058823A1F0C7
:103B10006091FC047091FD048091FE049091FF047B
:103B20000E948C302EEA31E646E05DE30E94793156
:103B30000E945930EB010FC06091FC047091FD04AC
:103B40008091FE049091FF0424E630E040E050E0D4
:103B50000E948E32E90180918504882389F080914A
:103B6000500690915106069758F080913804909134
:103B700039048C179D0724F4D0933904C09338047A
:103B800089E00E94300B882339F18091BF0588239A
:103B900019F1CE016AE070E00E9458328091CE05A2
:103BA00090E06817790724F080916106811114C0B4
:103BB000BE01882777FD8095982F20E041E00E9484
:103BC000851C6091410570914205717084E392E01B
:103BD000DF91CF910C94F608DF91CF910895CF92A9
:103BE000DF92EF92FF92CF93DF9380917D04882341
:103BF00009F45DC08091AC058823A1F060917E043A
:103C000070917F0480918004909181040E948A3099
:103C100021EA38EF41E550E40E9479310E945E309C
:103C2000EB0104C0C0917E04D0917F046E01E12CB1
:103C3000F12C8091340490913504A0913604B09118
:103C400037048C159D05AE05BF0540F4C0923404C1
:103C5000D0923504E0923604F092370482E00E945C
:103C6000300B882321F1CE0164E670E00E944432DB
:103C70008091CD0590E06817790720F0809161066A
:103C8000811115C022E041E0C701B6010E94851CE8
:103C90006091330570913405717084E392E0DF9197
:103CA000CF91FF90EF90DF90CF900C94F608DF91CA
:103CB000CF91FF90EF90DF90CF900895E091850134
:103CC00081E08E0F80938501F0E0E657FE4F808102
:103CD0000895CF93DF930E945E1EC82FD0E00E940C
:103CE0005E1E9E01382BC901DF91CF910895CF92BE
:103CF000DF92EF92FF920E94691E6C01E12CF12C81
:103D00000E94691EA0E0B0E0772766276C297D2914
:103D10008E299F29FF90EF90DF90CF90089526E0A5
:103D200040E052EC61E070E08FE796E00E94FE2DEB
:103D30008091C00082608093C0001092C50080E135
:103D40008093C4008FE796E00E94772D84B18C6247
:103D500084B92498569A529860E084E10E94AC2C71
:103D600060E081E10E94AC2C60E081E10E94AC2C1B
:103D700061E087E00E94AC2C0E9463080E948E05DF
:103D80000E94510564EF71E080E090E00E94002CF9
:103D90008091B405882311F081E001C083E00E9486
:103DA000632C0E9429090C94E203CF93C82F682F3B
:103DB0008FE796E00E94992D909184019C27909323
:103DC0008401CF910895CF93DF931F92CDB7DEB7D3
:103DD00099830E94D51E9981892F0F90DF91CF91F1
:103DE0000C94D51E609184018FE796E00C94992D78
:103DF000CF93DF93D82FC62F64E270E08FE796E071
:103E00000E94A5036DE470E08FE796E00E94A50391
:103E10006CE370E08FE796E00E94A50310928401A6
:103E20008C2F0E94D51E8D2F0E94D51EC11104C05B
:103E3000DF91CF910C94F21EDF91CF910895CF9333
:103E40006FE18CED0E94F81E89E00E94D51ECAE049
:103E5000609106067091070685E796E00E94802B28
:103E60008093050680910606909107060E94E31E46
:103E7000809105060E94D51E809106069091070646
:103E800001969093070680930606C15009F7CF91DB
:103E90000C94F21E63E08CED0E94F81E89E00E94F3
:103EA000D51E80910606909107060E94E31E0C9491
:103EB000F21E61E082ED0E94F81E809105050E94CD
:103EC000D51E0E94F21E60E08AEF0E94F81E0E943A
:103ED000E20364E670E080E090E00C94002C81E066
:103EE000809335018AE08093370183E08093360127
:103EF00010924206109284048091B205882301F149
:103F000010922E0410922F0410923004109231045B
:103F10001092340410923504109236041092370433
:103F2000109239041092380410923B0410923A0413
:103F3000109233041092320410922D0410922C042B
:103F40008091030590910505981721F08093050550
:103F50000E94591F0C94E203EF92FF920F931F935C
:103F6000CF93DF93809105058093030561E08CE397
:103F70000E94F81E809102050E94D51E0E94F21E2A
:103F800062E08AE40E94F81E80910005909101058C
:103F90000E94E31E0E94F21E6EE18AEC0E94F81E4F
:103FA000C5E2D5E05BE1E52E55E0F52E01E115E037
:103FB00089910E94D51EF70181917F010E94D51E33
:103FC000F80181918F010E94D51EF5E0CF32DF0705
:103FD00079F70E94F21E6BE08CEC0E94F81E809133
:103FE00010050E94D51E80910F050E94D51E80915C
:103FF0000E050E94D51E80910D050E94D51E809150
:104000000C050E94D51E80910B050E94D51E809143
:104010000A050E94D51E809109050E94D51E809137
:104020000705909108050E94E31E809106050E94F5
:10403000D51E0E94F21E0E94CE0460E08AEF0E940C
:10404000F81EDF91CF911F910F91FF90EF900C948C
:104050006F1F809137018A30C9F4909136019330F7
:10406000A9F49091520692301CF091E09093520680
:10407000909152069F3F1CF49FEF909352069091AF
:10408000350120915206920F9093350190913501A0
:1040900097FF03C099E090933501909135019A30D4
:1040A00014F01092350190913501913019F5EFEF30
:1040B000E80FE83008F058C2863010F0E1E0E80F71
:1040C00080913601823049F0833081F0813009F0EF
:1040D0004BC2F0E0EB5DFA4F03C0F0E0E55EFA4F53
:1040E000808190915206890F80833EC2F0E0EF5E9E
:1040F000FA4FF6CF923009F050C0909136019330CC
:1041000009F032C2482F50E0FA013197E930F10549
:1041100008F02AC2EC5CFF4F209152060C94AD329D
:1041200080911005820F809310051EC280910F05AB
:10413000820F80930F0518C280910E05820F809325
:104140000E0512C280910D05820F80930D050CC2E1
:1041500080910C05820F80930C0506C280910B059F
:10416000820F80930B0500C280910A05820F809315
:104170000A05FAC180910905820F80930905F4C1EF
:104180008091070590910805820F911D27FD9A9552
:104190009093080580930705E7C1933009F049C063
:1041A00090913601933009F0DFC1482F50E0FA01B9
:1041B0003197E730F10508F0D7C1E35CFF4F0C946D
:1041C000AD3281E090919605911180E08093960543
:1041D000CBC18091520690919905890F80939905E2
:1041E000C3C18091520690919705890F80939705DE
:1041F000BBC181E09091A005911180E08093A00562
:10420000B3C1809152069091A105890F8093A105B9
:10421000ABC18091520690919805890F80939805C3
:10422000A3C181E090919A05911180E080939A0555
:104230009BC1943009F04DC090913601933009F044
:1042400093C1833039F148F48130E1F0823009F0D4
:104250008BC18FE08093650687C1853059F110F1DD
:10426000863009F081C12091520680918705909196
:104270008805820F911D27FD9A959093880580935C
:10428000870572C181E090919305911180E0809340
:1042900093056AC181E090919405911180E080932B
:1042A000940562C181E090919505911180E0809321
:1042B00095055AC1209152068091890590918A05F1
:1042C000820F911D27FD9A9590938A058093890509
:1042D0004BC1953009F048C090913601933009F0F8
:1042E00043C1833051F128F48130B9F08230E9F0D4
:1042F0003BC1843051F1853009F036C1209152061E
:104300008091830590918405820F911D27FD9A95D8
:10431000909384058093830527C181E090919B054C
:10432000911180E080939B051FC181E090919D05D4
:10433000911180E080939D0517C181E090919E05C9
:10434000911180E080939E050FC1209152068091CB
:10435000850590918605820F911D27FD9A95909372
:1043600086058093850500C1963009F050C0909174
:104370003601933009F0F8C090E0FC013197E83045
:10438000F10508F0F1C0EC5BFF4F0C94AD3281E019
:104390009091AF05911180E08093AF05E5C081E079
:1043A0009091B005911180E08093B005DDC081E06F
:1043B0009091BC05911180E08093BC05D5C081E04F
:1043C0009091AE05911180E08093AE05CDC081E063
:1043D0009091A605911180E08093A605C5C081E06B
:1043E0009091C305911180E08093C305BDC081E029
:1043F0009091BD05911180E08093BD05B5C080917D
:1044000052069091B305890F8093B305ADC09730E4
:10441000B1F590913601933009F0A6C0833019F1BF
:1044200028F4813081F08230B1F09EC0843019F1DF
:10443000853009F099C0809152069091C905890F85
:104440008093C90591C081E09091AC05911180E005
:104450008093AC0589C081E09091B405911180E012
:104460008093B40581C081E09091BB05911180E0FB
:104470008093BB0579C08AE08093660675C098304A
:1044800009F048C090913601933009F06DC090E07A
:10449000FC013197E730F10508F066C0E45BFF4F9F
:1044A0000C94AD32809152069091CD05890F809386
:1044B000CD055AC0809152069091CE05890F809308
:1044C000CE0552C0809152069091CF05890F8093FE
:1044D000CF054AC0809152069091D005890F8093F4
:1044E000D00542C0809152069091A305890F809318
:1044F000A3053AC0809152069091A405890F80933C
:10450000A40532C081E090919F05911180E08093D5
:104510009F052AC0993041F590913601933021F5DD
:10452000823061F0833091F08130F1F480910505A3
:1045300090915206890F8093050516C0809102055F
:1045400090915206890F809302050EC02091520669
:104550008091000590910105820F911D27FD9A958C
:10456000909301058093000580910505833010F03C
:10457000109205059091050580910405981731F07A
:104580000E94591F80910505809304058091370191
:104590008A3079F48091350180933401809136011D
:1045A000813019F0823019F008950C946F1F0C942B
:1045B000AC1F08950F931F938091160190911701DE
:1045C000855195408F389140C8F4809114019091A5
:1045D0001501855195408F38914080F480911801E4
:1045E00090911901855195408F38914038F410927F
:1045F0007A0188EE93E0A0E0B0E025C080917A01D6
:10460000813049F50E94D12B009172011091730104
:104610002091740130917501601B710B820B930B1B
:104620000091760110917701209178013091790104
:10463000061717072807390710F410927A018CE241
:1046400091E0A0E0B0E08093760190937701A09391
:104650007801B093790180917A018111E1C0809154
:10466000160190911701209142068B33974040F13B
:1046700080911801909119018B33974008F1809136
:104680001A0190911B018F379440D0F02111BAC0CC
:104690008091500690915106069708F4B3C080911E
:1046A00085048111AFC082E080937A0181E080931C
:1046B000420680913401809335010E94E203A2C03A
:1046C000222309F49FC01091520610925206809145
:1046D0008404882361F080911A0190911B01853137
:1046E000954028F082E080937A010E946F1F3091FC
:1046F0004206332309F451C08091140190911501B1
:104700008B3327E0920778F081E080937A018091E3
:1047100036018F5F80933601843008F473C083E0E4
:10472000809336016FC08E37944068F491E0909387
:104730007A0180913601815080933601811162C0E7
:10474000909336015FC080911601909117018B33D1
:1047500027E0920788F091E090937A0180913701E9
:10476000815019F08093370102C0909337018091F6
:104770003501811147C00DC08E37944070F481E03F
:1047800080937A01809137018F5F809337018B305E
:10479000C8F18AE08093370135C08091840481118B
:1047A00031C0332379F1212F16300CF025E02B3F57
:1047B0000CF42BEF80911801909119018E3734E0A1
:1047C000930738F481E080937A01215020935206B8
:1047D00017C08B339740B0F081E080937A012F5F50
:1047E0002093520680913501883051F48091360132
:1047F000833031F480913701853011F410926606D0
:104800000E94292080917A01813051F40E94D12B9D
:10481000609372017093730180937401909375019A
:104820001F910F910895CF92DF92EF92FF920F9315
:104830001F93CF93DF931092850183E080936F06DF
:10484000809187018C3D09F0D8C00E945E1E89309E
:1048500041F50E945E1EC82FD0E0D0930706C0939A
:1048600006060E945E1EC80FD11DD0930706C09396
:1048700006060E945E1E8093050681E08093040672
:104880000E94D12B6854744F8F4F9F4F6093000646
:104890007093010680930206909303060E941F1FE7
:1048A000ACC0883009F056C01AE001E00E945E1EDC
:1048B000C82FD0E0D0930706C09306060E945E1E64
:1048C000282F30E0322F22272C0F3D1F3093070670
:1048D000209306060E945E1E809305060093040640
:1048E0000E94D12B6854744F8F4F9F4F60930006E6
:1048F000709301068093020690930306609106066A
:10490000709107064091050685E796E00E94832B8B
:104910004CE060E070E085E796E00E94832B809198
:104920000606909107068A35910519F08035914069
:1049300011F40E945105115009F0B8CF809106067C
:1049400090910706019690930706809306060E94B1
:104950004A1F53C08730D1F46BE08CED0E94F81EE3
:1049600087E00E94D51EC0EAD4E088819981F3E0F7
:1049700096958795FA95E1F70E94E31E649685E087
:10498000C430D80791F70E94F21E37C0833049F532
:1049900080918801853081F40E94691E80329D419A
:1049A00061F50E945E1E80930A060E945E1E80933F
:1049B00009060E94CF0321C08833F9F4CBE0D6E08A
:1049C0000E945E1E8993B6E0C134DB07C9F70E94DE
:1049D0005E1EC82F0E948309CF3F79F40E942909E7
:1049E0000CC0863029F40E94DE080E948E0502C0A9
:1049F000853019F481E080935D06809187018436CB
:104A000041F481E080935B060E945E1E80938904DE
:104A10004BC08536D9F50E94691E90934F0680934E
:104A20004E060E94691E90934D0680934C060E948C
:104A3000691E90938F0480938E040E94771E60936A
:104A40008A0470938B0480938C0490938D0420913E
:104A5000DB05C22ED12CE12CF12CC622D722E82274
:104A6000F92221E0CD28CE28CF2809F420E0209398
:104A700085040E945E1E8093050590914206911167
:104A800013C080930305809304050EC0893661F43A
:104A9000C4E1D1E00E94691E89939993E1E0C43298
:104AA000DE07C1F70E94DA22809187018A3609F079
:104AB00053C085E0809370060E945E1E882319F023
:104AC00081E080937D040E945E1E809364040E94B6
:104AD000771E6093790470937A0480937B0490939B
:104AE0007C040E94771E6093750470937604809313
:104AF0007704909378040E94691EA0E0B0E02091B2
:104B00008504211108C080936D0490936E04A093D6
:104B10006F04B093700440916D0450916E046091E5
:104B20006F0470917004841B950BA60BB70B8093D8
:104B3000710490937204A0937304B09374040E9460
:104B4000691E90936C0480936B040E94691E90937D
:104B50006A0480936904BFC18B3699F40E94691E70
:104B6000A0E0B0E080937E0490937F04A093800443
:104B7000B09381040E94691E90936604809365043B
:104B8000AAC18C36A9F40E94691E9093F504809303
:104B9000F4040E94691E9093F7048093F6040E9427
:104BA000691E843B91050CF492C1885691408FC1D7
:104BB0008D3689F40E94771E6093FC047093FD0487
:104BC0008093FE049093FF040E94691E90938704D3
:104BD0008093860480C18E36B9F40E945E1E809355
:104BE00088040E94691E90936304809362040E946B
:104BF000691E90936104809360040E94691E9093E3
:104C000047048093460467C18F36A1F50E945E1E5B
:104C1000809310050E945E1E80930F050E945E1E09
:104C200080930E050E945E1E80930D050E945E1EFD
:104C300080930C050E945E1E80930B050E945E1EF1
:104C400080930A050E945E1E809309050E94691EDA
:104C500090930805809307050E945E1E80930605C9
:104C60008091300290913102A0913202B0913302D2
:104C70009D7F46C0803719F5C5E2D5E00BE115E010
:104C8000E1E1EE2EE5E0FE2E0E945E1E89930E9479
:104C90005E1ED8018D938D010E945E1EF7018193E7
:104CA0007F01F5E0CF32DF0779F7809130029091F4
:104CB0003102A0913202B09133029B7F21C08B332D
:104CC00071F40E945E1E80930205809130029091E3
:104CD0003102A0913202B0913302AB7F11C089340E
:104CE000C1F40E94691E9093010580930005809194
:104CF000300290913102A0913202B0913302A77F2D
:104D00008093300290933102A0933202B093330229
:104D1000E2C0873709F0DFC081E080935C06C09174
:104D2000880185E2EBEDF5E0DF011D928A95E9F758
:104D3000C12CD12C7601C394CC2309F4CCC00E94A1
:104D40005E1E992787FD9095A92FB92F8D3191056A
:104D500008F0B7C0FC01ED5AFF4F0C94AD328091C2
:104D6000DB058C298093DB05ACC08091DC058C29A8
:104D70008093DC05A6C08091DD058C298093DD053C
:104D8000A0C08091DE058C298093DE059AC08091B9
:104D9000DF058C298093DF0594C08091E005909118
:104DA000E1058C299D299093E1058093E00589C058
:104DB0008091E2059091E3058C299D299093E3056C
:104DC0008093E2057EC08091E4059091E5058C29F1
:104DD0009D299093E5058093E40573C08091E605D5
:104DE0009091E7058C299D299093E7058093E6052E
:104DF00068C08091F4059091F505A091F605B091F9
:104E0000F7058C299D29AE29BF298093F40590933D
:104E1000F505A093F605B093F70553C08091F00512
:104E20009091F105A091F205B091F3058C299D298F
:104E3000AE29BF298093F0059093F105A093F20568
:104E4000B093F3053EC08091F8059091F905A091CB
:104E5000FA05B091FB058C299D29AE29BF298093C5
:104E6000F8059093F905A093FA05B093FB0529C0C6
:104E70008091FC059091FD05A091FE05B091FF0584
:104E80008C299D29AE29BF298093FC059093FD05AF
:104E9000A093FE05B093FF0514C08091E8059091A2
:104EA000E905A091EA05B091EB058C299D29AE2971
:104EB000BF298093E8059093E905A093EA05B09394
:104EC000EB05CC0CDD1CEE1CFF1CC15035CF9093C4
:104ED000510480935004DF91CF911F910F91FF9067
:104EE000EF90DF90CF900895FF920F931F93CF9391
:104EF000DF93F82E8FE796E00E941B2D21E0892B8F
:104F000009F420E0C5E0D0E004E010E0213009F031
:104F10006DC08FE796E00E94342D20917001309192
:104F200071012115310529F421E030E0843289F442
:104F300012C02130310529F48D3459F422E030E0DB
:104F40000AC02230310561F48E3319F423E030E0D9
:104F500002C020E030E030937101209370013EC028
:104F60002330310559F4873960F580938801109317
:104F70007101009370018093860130C024303105A7
:104F800071F4D0937101C093700180938701909167
:104F90008601982790938601109289011FC02530C1
:104FA0003105E1F490918601982790938601E09174
:104FB000890120918801E21309C0911102C00E9469
:104FC0001324109271011092700108C091E09E0F9D
:104FD00090938901F0E0E657FE4F80838FE796E0DB
:104FE0000E941B2D892B11F0F11093CFDF91CF91EF
:104FF0001F910F91FF900895CF92DF92EF92FF9251
:105000000E94D12B6B017C0188E2C80ED11CE11CEF
:10501000F11C81E08093200280912002882371F0AE
:105020000E94D12BC616D706E806F90618F410928E
:105030002002F2CF80E00E947427EECFFF90EF9025
:10504000DF90CF900895FF920F931F93CF93DF933C
:105050005E9860E085E00E941A0960E086E00E94A8
:105060001A0961E084E00E941A090E94FC2708E402
:1050700012E0C0E0D0E0B0E2FB2E809122029091DD
:105080002302C817D90778F4C03FD10511F40E9454
:10509000FC27F801608187E00E941A09F801F1926B
:1050A0008F012196EACF6FEF87E00E941A0960E036
:1050B00084E00E941A095E9ADF91CF911F910F91AF
:1050C000FF900895CF92DF92EF92FF920F931F937C
:1050D0001092280480915D06882311F00C94000042
:1050E000E091C905E0933801109244068091C8050B
:1050F0008823A1F0F0E0EE0FFF1FEE5EFE4F8081EF
:105100009181813426E0920710F081E004C0893754
:105110009540E0F082E08093440618C08091F0054D
:105120009091F105A091F205B091F30540918A04A8
:1051300050918B0460918C0470918D04842395238D
:10514000A623B723892B8A2B8B2BF9F69091440643
:105150008091430698130E940B058091440680932A
:10516000430680915F06863010F061E001C060E088
:1051700087E00E94E52C0E94D12B6B017C0180917D
:10518000280290912902A0912A02B0912B02B70126
:10519000A601481B590B6A0B7B0B44365105610570
:1051A000710508F445C08C599F4FAF4FBF4F809396
:1051B000280290932902A0932A02B0932B02809197
:1051C0005F068F5F80935F06809160068F5F80939C
:1051D000600681E090916206911180E08093620602
:1051E0000E94830480919D058823D1F020914C0476
:1051F00030914D0440914E0450914F046091480409
:105200007091490480914A0490914B040E94862F2A
:10521000609348047093490480934A0490934B042C
:1052200080914106811104C060E08CE60E94F81E66
:105230008091240290912502A0912602B09127022C
:10524000C81AD90AEA0AFB0A22E3C216D104E10409
:10525000F10408F4B6C1C296A11DB11D80932402C9
:1052600090932502A0932602B093270280912C02EE
:1052700090912D02A0912E02B0912F02892B8A2BA2
:105280008B2B81F48091300290913102A0913202F7
:10529000B091330280932C0290932D02A0932E02A2
:1052A000B0932F0200912C0210912D0220912E021A
:1052B00030912F0288279927DC01801B910BA20BCC
:1052C000B30B80239123A223B323AC01BD014095EE
:1052D000509560957095402351236223732340932A
:1052E0002C0250932D0260932E0270932F02811591
:1052F00021E09207A105B10509F458C028F58830CE
:105300009105A105B10509F44BC068F48130910500
:10531000A105B10509F442C00297A105B10509F044
:1053200051C085E650C080329105A105B105E1F17B
:1053300080389105A105B105A9F14097A105B105F6
:1053400009F040C08DE63FC0811520E19207A1051C
:10535000B105B1F198F4811524E09207A105B105DA
:1053600049F1811528E09207A105B10539F18115B0
:105370009240A105B10531F58FE625C0009724E0E4
:10538000A207B105A9F0009728E0A207B105A1F096
:105390000097A140B105B1F482E715C084E613C0BF
:1053A00089E611C08AE60FC08BE60DC08EE60BC001
:1053B0008BE309C080E707C089E405C087E703C025
:1053C0008CED01C080E090914106911105C060E034
:1053D0000E94F81E0E9423280E9410068091500609
:1053E00090915106089760F40E94571280915404DE
:1053F00090915504CC979093640680936306E1C026
:1054000080918504882349F081E080938404809111
:105410004206813011F40E946F1F8091840488231A
:1054200081F08091850481110CC0109235018AE0D1
:105430008093370181E080933601809342060E9479
:10544000E20380914206882319F00E949717B9C0A1
:105450000E94E20380918E0480FF0AC06091F604EE
:105460007091F7048091F4049091F5040E94F90C76
:105470008091960581110E94220F8091A0058111D3
:105480000E94B30F80919305882379F08091920553
:1054900090E02091440430914504821793071CF05A
:1054A0008091610681110E94D01180919B05882313
:1054B00021F120E030E040E251E460914C04709131
:1054C0004D0480914E0490914F040E94F12F6B0186
:1054D0007C016091A40570E080E090E00E948C3037
:1054E0009B01AC01C701B6010E94EA2F87FD03C0F2
:1054F0008091610681110E94D51080919D058823BD
:1055000049F00E94AC03882309F4F7C0809161063A
:105510008111F3C00E9481100E9421110E94C21BC0
:105520008091AE0581110E94E70F80915404909103
:1055300055042091630630916406A901445C5F4FD5
:1055400048175907A0F4205C3F4F2817390720F46B
:1055500090936406809363068091B705882339F0A1
:1055600080917D0590917E0591700E94E80C80915C
:105570008E0482FF04C00E9432120E94FC118091AE
:105580008E0481FF04C00E94821D0E941A13809124
:105590008E0483FF12C08091A505882371F00E94BC
:1055A00081120E94A7130E94EF1D0E9481130E9486
:1055B000A9120E94071D0E945E150E94400B0E94C6
:1055C000B81480916006853048F01092600681E042
:1055D00090916106911180E0809361060E94D12B29
:1055E00000916B0610916C0620916D0630916E064D
:1055F00008511C4F2F4F3F4F061717072807390731
:1056000008F072C000936B0610936C0620936D0631
:1056100030936E0610925F06809154049091550469
:105620000196909355048093540480914106811112
:1056300002C00E94BC0980917006811103C01092C3
:10564000640403C081508093700680916F068823A4
:1056500019F0815080936F0680918504811109C0F3
:10566000809150049091510490938304809382041C
:1056700016C0809152049091530401969093530464
:105680008093520480912C0490912D040196909364
:105690002D0480932C04109242060E94E203809114
:1056A00050069091510601969093510680935006B2
:1056B00080916606813051F480914206882331F052
:1056C00060E08EEC0E94F81E1092660680916606DD
:1056D000882319F08150809366068091650688239F
:1056E00019F081508093650681E01F910F91FF9022
:1056F000EF90DF90CF900C9474270E94A6110ACFF0
:10570000CB010C941233CB01642F0C941A331F92EB
:105710000F920FB60F9211242F933F938F939F9365
:10572000AF93BF938091770690917806A091790608
:10573000B0917A063091760623E0230F2D3720F4BE
:105740000196A11DB11D05C026E8230F0296A11DDB
:10575000B11D209376068093770690937806A093E8
:105760007906B0937A0680917B0690917C06A09191
:105770007D06B0917E060196A11DB11D80937B062A
:1057800090937C06A0937D06B0937E06BF91AF9167
:105790009F918F913F912F910F900FBE0F901F906F
:1057A00018952FB7F89460917706709178068091DC
:1057B000790690917A062FBF08953FB7F8948091AB
:1057C0007B0690917C06A0917D06B0917E0626B561
:1057D000A89B05C02F3F19F00196A11DB11D3FBF29
:1057E0006627782F892F9A2F620F711D811D911DB9
:1057F00042E0660F771F881F991F4A95D1F70895D9
:10580000CF92DF92EF92FF92CF93DF936B017C01F7
:105810000E94DD2BEB01C114D104E104F10489F0F5
:105820000E94842F0E94DD2B6C1B7D0B683E734011
:1058300090F381E0C81AD108E108F108C851DC4FA3
:10584000EACFDF91CF91FF90EF90DF90CF90089556
:10585000789484B5826084BD84B5816084BD85B54B
:10586000826085BD85B5816085BDEEE6F0E0808112
:1058700081608083E1E8F0E0108280818260808333
:10588000808181608083E0E8F0E0808181608083B6
:10589000E1EBF0E0808184608083E0EBF0E08081E8
:1058A00081608083EAE7F0E080818460808380818A
:1058B0008260808380818160808380818068808332
:1058C0001092C100089580933A0108958E3008F037
:1058D0008E50877020913A0190E4299F9001112405
:1058E000822B80937C0080917A00806480937A0080
:1058F00080917A0086FDFCCF80917800209179001C
:1059000090E0922B0895833081F028F4813099F053
:105910008230A1F008958730A9F08830B9F0843042
:10592000D1F4809180008F7D03C0809180008F77BB
:1059300080938000089584B58F7702C084B58F7DF1
:1059400084BD08958091B0008F7703C08091B0002E
:105950008F7D8093B0000895CF93DF9390E0FC019A
:10596000E854F94F2491FC01E453F94F84918823C2
:1059700049F190E0880F991FFC01E651F94FA5917C
:10598000B4918052994FFC01C591D4919FB7611198
:1059900008C0F8948C91209582238C93888182236F
:1059A0000AC0623051F4F8948C91322F30958323E1
:1059B0008C938881822B888304C0F8948C91822BED
:1059C0008C939FBFDF91CF9108950F931F93CF9337
:1059D000DF931F92CDB7DEB7282F30E0F901EC55E9
:1059E000F94F8491F901E854F94F1491F901E45306
:1059F000F94F04910023C9F0882321F069830E94A4
:105A0000832C6981E02FF0E0EE0FFF1FE052F94F89
:105A1000A591B4919FB7F8948C91611103C0109532
:105A2000812301C0812B8C939FBF0F90DF91CF9179
:105A30001F910F910895FC01818D228D90E0805C73
:105A40009F4F821B91098F7399270895FC01918DB7
:105A5000828D981731F0828DE80FF11D858D90E0D1
:105A600008958FEF9FEF0895FC01918D828D981717
:105A700061F0828DDF01A80FB11D5D968C91928D32
:105A80009F5F9F73928F90E008958FEF9FEF08952F
:105A900088EB9EE2892B49F080E090E0892B29F089
:105AA0000E94B82E81110C9400000895FC01848D91
:105AB000DF01A80FB11DA35ABF4F2C91848D90E038
:105AC00001968F739927848FA689B7892C93A08913
:105AD000B1898C9180648C93938D848D981306C0CA
